{
  "_format": "hh-sol-artifact-1",
  "contractName": "NFTCollections",
  "sourceName": "contracts/NFTCollections.sol",
  "abi": [
    {
      "anonymous": false,
      "inputs": [
        {
          "indexed": false,
          "internalType": "uint256",
          "name": "id",
          "type": "uint256"
        },
        {
          "indexed": false,
          "internalType": "uint256",
          "name": "status",
          "type": "uint256"
        }
      ],
      "name": "CollectionCancelled",
      "type": "event"
    },
    {
      "anonymous": false,
      "inputs": [
        {
          "indexed": false,
          "internalType": "uint256",
          "name": "id",
          "type": "uint256"
        },
        {
          "indexed": false,
          "internalType": "string",
          "name": "websiteURL",
          "type": "string"
        },
        {
          "indexed": false,
          "internalType": "string",
          "name": "twitter",
          "type": "string"
        },
        {
          "indexed": false,
          "internalType": "string",
          "name": "discord",
          "type": "string"
        },
        {
          "indexed": false,
          "internalType": "string",
          "name": "email",
          "type": "string"
        },
        {
          "indexed": false,
          "internalType": "string",
          "name": "openseaURL",
          "type": "string"
        },
        {
          "indexed": false,
          "internalType": "string[]",
          "name": "tags",
          "type": "string[]"
        },
        {
          "indexed": false,
          "internalType": "string",
          "name": "paymentPlan",
          "type": "string"
        },
        {
          "indexed": false,
          "internalType": "bool",
          "name": "isVariablePaymentPlan",
          "type": "bool"
        },
        {
          "indexed": false,
          "internalType": "uint256",
          "name": "status",
          "type": "uint256"
        }
      ],
      "name": "CollectionContactCreated",
      "type": "event"
    },
    {
      "anonymous": false,
      "inputs": [
        {
          "indexed": false,
          "internalType": "address",
          "name": "owner",
          "type": "address"
        },
        {
          "indexed": false,
          "internalType": "uint256",
          "name": "id",
          "type": "uint256"
        },
        {
          "indexed": false,
          "internalType": "string",
          "name": "name",
          "type": "string"
        },
        {
          "indexed": false,
          "internalType": "string",
          "name": "description",
          "type": "string"
        },
        {
          "indexed": false,
          "internalType": "string",
          "name": "imageURI",
          "type": "string"
        },
        {
          "indexed": false,
          "internalType": "string",
          "name": "blockchain",
          "type": "string"
        },
        {
          "indexed": false,
          "internalType": "uint256",
          "name": "totalSupply",
          "type": "uint256"
        },
        {
          "indexed": false,
          "internalType": "uint256",
          "name": "mintDate",
          "type": "uint256"
        },
        {
          "indexed": false,
          "internalType": "uint256",
          "name": "price",
          "type": "uint256"
        }
      ],
      "name": "CollectionCreated",
      "type": "event"
    },
    {
      "anonymous": false,
      "inputs": [
        {
          "indexed": false,
          "internalType": "uint256",
          "name": "id",
          "type": "uint256"
        },
        {
          "indexed": false,
          "internalType": "string",
          "name": "paymentPlan",
          "type": "string"
        },
        {
          "indexed": false,
          "internalType": "uint256",
          "name": "status",
          "type": "uint256"
        }
      ],
      "name": "CollectionPublished",
      "type": "event"
    },
    {
      "anonymous": false,
      "inputs": [
        {
          "indexed": false,
          "internalType": "uint256",
          "name": "id",
          "type": "uint256"
        },
        {
          "indexed": false,
          "internalType": "string",
          "name": "paymentPlan",
          "type": "string"
        },
        {
          "indexed": false,
          "internalType": "uint256",
          "name": "status",
          "type": "uint256"
        }
      ],
      "name": "CollectionRequestPlanUpgrade",
      "type": "event"
    },
    {
      "anonymous": false,
      "inputs": [
        {
          "indexed": false,
          "internalType": "uint256",
          "name": "id",
          "type": "uint256"
        },
        {
          "indexed": false,
          "internalType": "string",
          "name": "name",
          "type": "string"
        },
        {
          "indexed": false,
          "internalType": "string",
          "name": "description",
          "type": "string"
        },
        {
          "indexed": false,
          "internalType": "string",
          "name": "imageURI",
          "type": "string"
        },
        {
          "indexed": false,
          "internalType": "string",
          "name": "blockchain",
          "type": "string"
        },
        {
          "indexed": false,
          "internalType": "uint256",
          "name": "totalSupply",
          "type": "uint256"
        },
        {
          "indexed": false,
          "internalType": "uint256",
          "name": "mintDate",
          "type": "uint256"
        },
        {
          "indexed": false,
          "internalType": "uint256",
          "name": "price",
          "type": "uint256"
        },
        {
          "indexed": false,
          "internalType": "string[]",
          "name": "contactData",
          "type": "string[]"
        },
        {
          "indexed": false,
          "internalType": "string[]",
          "name": "marketplaceData",
          "type": "string[]"
        },
        {
          "indexed": false,
          "internalType": "string[]",
          "name": "tags",
          "type": "string[]"
        }
      ],
      "name": "CollectionUpdated",
      "type": "event"
    },
    {
      "anonymous": false,
      "inputs": [
        {
          "indexed": false,
          "internalType": "uint256",
          "name": "id",
          "type": "uint256"
        },
        {
          "indexed": false,
          "internalType": "bool",
          "name": "isVariablePaymentPlan",
          "type": "bool"
        }
      ],
      "name": "EndVariablePaymentPlan",
      "type": "event"
    },
    {
      "anonymous": false,
      "inputs": [
        {
          "indexed": true,
          "internalType": "address",
          "name": "previousOwner",
          "type": "address"
        },
        {
          "indexed": true,
          "internalType": "address",
          "name": "newOwner",
          "type": "address"
        }
      ],
      "name": "OwnershipTransferred",
      "type": "event"
    },
    {
      "anonymous": false,
      "inputs": [
        {
          "indexed": false,
          "internalType": "uint256",
          "name": "collectionId",
          "type": "uint256"
        },
        {
          "indexed": false,
          "internalType": "uint256",
          "name": "startDate",
          "type": "uint256"
        },
        {
          "indexed": false,
          "internalType": "string",
          "name": "paymentPlan",
          "type": "string"
        },
        {
          "indexed": false,
          "internalType": "string",
          "name": "paymentTxHash",
          "type": "string"
        }
      ],
      "name": "PaymentPlanHistoryAdded",
      "type": "event"
    },
    {
      "anonymous": false,
      "inputs": [
        {
          "indexed": false,
          "internalType": "uint256",
          "name": "id",
          "type": "uint256"
        },
        {
          "indexed": false,
          "internalType": "bool",
          "name": "isVariablePaymentPlan",
          "type": "bool"
        }
      ],
      "name": "StartVariablePaymentPlan",
      "type": "event"
    },
    {
      "inputs": [
        {
          "internalType": "uint256",
          "name": "_collectionId",
          "type": "uint256"
        }
      ],
      "name": "cancelCollection",
      "outputs": [],
      "stateMutability": "nonpayable",
      "type": "function"
    },
    {
      "inputs": [
        {
          "internalType": "string[]",
          "name": "_collectionInfo",
          "type": "string[]"
        },
        {
          "internalType": "uint256",
          "name": "_totalSupply",
          "type": "uint256"
        },
        {
          "internalType": "uint256[]",
          "name": "_mintingInfo",
          "type": "uint256[]"
        },
        {
          "internalType": "string[]",
          "name": "_contactData",
          "type": "string[]"
        },
        {
          "internalType": "string[]",
          "name": "_marketplaceData",
          "type": "string[]"
        },
        {
          "internalType": "string[]",
          "name": "_tags",
          "type": "string[]"
        },
        {
          "internalType": "string[]",
          "name": "_paymentInfo",
          "type": "string[]"
        }
      ],
      "name": "createCollection",
      "outputs": [],
      "stateMutability": "nonpayable",
      "type": "function"
    },
    {
      "inputs": [
        {
          "internalType": "uint256",
          "name": "_collectionId",
          "type": "uint256"
        },
        {
          "internalType": "string",
          "name": "_name",
          "type": "string"
        },
        {
          "internalType": "string",
          "name": "_description",
          "type": "string"
        },
        {
          "internalType": "string",
          "name": "_imageURI",
          "type": "string"
        },
        {
          "internalType": "string",
          "name": "_blockchain",
          "type": "string"
        },
        {
          "internalType": "uint256",
          "name": "_totalSupply",
          "type": "uint256"
        },
        {
          "internalType": "uint256",
          "name": "_mintDate",
          "type": "uint256"
        },
        {
          "internalType": "uint256",
          "name": "_price",
          "type": "uint256"
        },
        {
          "internalType": "string[]",
          "name": "_contactData",
          "type": "string[]"
        },
        {
          "internalType": "string[]",
          "name": "_marketplaceData",
          "type": "string[]"
        },
        {
          "internalType": "string[]",
          "name": "_tags",
          "type": "string[]"
        }
      ],
      "name": "editCollection",
      "outputs": [],
      "stateMutability": "nonpayable",
      "type": "function"
    },
    {
      "inputs": [
        {
          "internalType": "uint256",
          "name": "_collectionId",
          "type": "uint256"
        }
      ],
      "name": "endVariablePaymentPlan",
      "outputs": [],
      "stateMutability": "nonpayable",
      "type": "function"
    },
    {
      "inputs": [],
      "name": "owner",
      "outputs": [
        {
          "internalType": "address",
          "name": "",
          "type": "address"
        }
      ],
      "stateMutability": "view",
      "type": "function"
    },
    {
      "inputs": [
        {
          "internalType": "uint256",
          "name": "_collectionId",
          "type": "uint256"
        }
      ],
      "name": "publishCollection",
      "outputs": [],
      "stateMutability": "nonpayable",
      "type": "function"
    },
    {
      "inputs": [],
      "name": "renounceOwnership",
      "outputs": [],
      "stateMutability": "nonpayable",
      "type": "function"
    },
    {
      "inputs": [
        {
          "internalType": "uint256",
          "name": "_collectionId",
          "type": "uint256"
        }
      ],
      "name": "startVariablePaymentPlan",
      "outputs": [],
      "stateMutability": "nonpayable",
      "type": "function"
    },
    {
      "inputs": [
        {
          "internalType": "address",
          "name": "newOwner",
          "type": "address"
        }
      ],
      "name": "transferOwnership",
      "outputs": [],
      "stateMutability": "nonpayable",
      "type": "function"
    },
    {
      "inputs": [
        {
          "internalType": "uint256",
          "name": "_collectionId",
          "type": "uint256"
        },
        {
          "internalType": "string",
          "name": "_paymentPlan",
          "type": "string"
        },
        {
          "internalType": "string",
          "name": "_paymentTxHash",
          "type": "string"
        }
      ],
      "name": "upgradePlan",
      "outputs": [],
      "stateMutability": "nonpayable",
      "type": "function"
    }
  ],
  "bytecode": "0x60806040523480156200001157600080fd5b506200001d3362000023565b62000073565b600080546001600160a01b038381166001600160a01b0319831681178455604051919092169283917f8be0079c531659141344cd1fd0a4f28419497f9722a3daafe3b4186f6b6457e09190a35050565b6159df80620000836000396000f3fe608060405234801561001057600080fd5b50600436106100be5760003560e01c806373f4be5811610076578063de78d88e1161005b578063de78d88e1461014e578063f2fde38b14610161578063f8276bd21461017457600080fd5b806373f4be58146101195780638da5cb5b1461012c57600080fd5b806330a40b6c116100a757806330a40b6c146100eb57806349c7f76d146100fe578063715018a61461011157600080fd5b80631454da7e146100c357806324c891e2146100d8575b600080fd5b6100d66100d1366004614f6c565b610187565b005b6100d66100e6366004614f89565b610b2e565b6100d66100f9366004614f6c565b61162c565b6100d661010c366004615002565b611fb7565b6100d6612ab4565b6100d6610127366004614f6c565b612aea565b6000546001600160a01b0316604051610145919061547c565b60405180910390f35b6100d661015c366004614e46565b613479565b6100d661016f366004614e22565b613e44565b6100d6610182366004614f6c565b613ea0565b6000546001600160a01b031633146101ba5760405162461bcd60e51b81526004016101b19061554c565b60405180910390fd5b600081815260026020819052604080832081516101c0810190925280546001600160a01b031660e083019081526001820154610100840152928101805492939192849291849161012085019190610210906158f3565b80601f016020809104026020016040519081016040528092919081815260200182805461023c906158f3565b80156102895780601f1061025e57610100808354040283529160200191610289565b820191906000526020600020905b81548152906001019060200180831161026c57829003601f168201915b505050505081526020016003820180546102a2906158f3565b80601f01602080910402602001604051908101604052809291908181526020018280546102ce906158f3565b801561031b5780601f106102f05761010080835404028352916020019161031b565b820191906000526020600020905b8154815290600101906020018083116102fe57829003601f168201915b50505050508152602001600482018054610334906158f3565b80601f0160208091040260200160405190810160405280929190818152602001828054610360906158f3565b80156103ad5780601f10610382576101008083540402835291602001916103ad565b820191906000526020600020905b81548152906001019060200180831161039057829003601f168201915b505050505081526020016005820180546103c6906158f3565b80601f01602080910402602001604051908101604052809291908181526020018280546103f2906158f3565b801561043f5780601f106104145761010080835404028352916020019161043f565b820191906000526020600020905b81548152906001019060200180831161042257829003601f168201915b505050505081526020016006820154815250508152602001600782016040518060400160405290816000820154815260200160018201548152505081526020016009820160405180608001604052908160008201805461049e906158f3565b80601f01602080910402602001604051908101604052809291908181526020018280546104ca906158f3565b80156105175780601f106104ec57610100808354040283529160200191610517565b820191906000526020600020905b8154815290600101906020018083116104fa57829003601f168201915b50505050508152602001600182018054610530906158f3565b80601f016020809104026020016040519081016040528092919081815260200182805461055c906158f3565b80156105a95780601f1061057e576101008083540402835291602001916105a9565b820191906000526020600020905b81548152906001019060200180831161058c57829003601f168201915b505050505081526020016002820180546105c2906158f3565b80601f01602080910402602001604051908101604052809291908181526020018280546105ee906158f3565b801561063b5780601f106106105761010080835404028352916020019161063b565b820191906000526020600020905b81548152906001019060200180831161061e57829003601f168201915b50505050508152602001600382018054610654906158f3565b80601f0160208091040260200160405190810160405280929190818152602001828054610680906158f3565b80156106cd5780601f106106a2576101008083540402835291602001916106cd565b820191906000526020600020905b8154815290600101906020018083116106b057829003601f168201915b5050505050815250508152602001600d82016040518060200160405290816000820180546106fa906158f3565b80601f0160208091040260200160405190810160405280929190818152602001828054610726906158f3565b80156107735780601f1061074857610100808354040283529160200191610773565b820191906000526020600020905b81548152906001019060200180831161075657829003601f168201915b5050505050815250508152602001600e82016040518060400160405290816000820180546107a0906158f3565b80601f01602080910402602001604051908101604052809291908181526020018280546107cc906158f3565b80156108195780601f106107ee57610100808354040283529160200191610819565b820191906000526020600020905b8154815290600101906020018083116107fc57829003601f168201915b50505091835250506001919091015460ff1615156020918201529082526010830180546040805182850281018501909152818152938301939260009084015b82821015610904578382906000526020600020018054610877906158f3565b80601f01602080910402602001604051908101604052809291908181526020018280546108a3906158f3565b80156108f05780601f106108c5576101008083540402835291602001916108f0565b820191906000526020600020905b8154815290600101906020018083116108d357829003601f168201915b505050505081526020019060010190610858565b5050509082525060119190910154602091820152608082015160019082018190526000858152600280845260409182902085518051825473ffffffffffffffffffffffffffffffffffffffff19166001600160a01b03909116178255808601519482019490945591830151805195965086959294859361098a9385019290910190614b45565b50606082015180516109a6916003840191602090910190614b45565b50608082015180516109c2916004840191602090910190614b45565b5060a082015180516109de916005840191602090910190614b45565b5060c0919091015160069091015560208281015180516007840155810151600883015560408301518051805191926009850192610a1e9284920190614b45565b506020828101518051610a379260018501920190614b45565b5060408201518051610a53916002840191602090910190614b45565b5060608201518051610a6f916003840191602090910190614b45565b505050606082015180518051600d840191610a8f91839160200190614b45565b505050608082015180518051600e840191610aaf91839160200190614b45565b50602091820151600191909101805460ff191691151591909117905560a08301518051610ae29260108501920190614bc9565b5060c082015181601101559050507f9deaabafc29d0d74e11ef886fb6432600800ffda3a35b86a77133abfc3c14ff0826001604051610b22929190615596565b60405180910390a15050565b60008381526002602052604090205483906001600160a01b03163314610b665760405162461bcd60e51b81526004016101b190615586565b600084815260026020819052604080832081516101c0810190925280546001600160a01b031660e083019081526001820154610100840152928101805492939192849291849161012085019190610bbc906158f3565b80601f0160208091040260200160405190810160405280929190818152602001828054610be8906158f3565b8015610c355780601f10610c0a57610100808354040283529160200191610c35565b820191906000526020600020905b815481529060010190602001808311610c1857829003601f168201915b50505050508152602001600382018054610c4e906158f3565b80601f0160208091040260200160405190810160405280929190818152602001828054610c7a906158f3565b8015610cc75780601f10610c9c57610100808354040283529160200191610cc7565b820191906000526020600020905b815481529060010190602001808311610caa57829003601f168201915b50505050508152602001600482018054610ce0906158f3565b80601f0160208091040260200160405190810160405280929190818152602001828054610d0c906158f3565b8015610d595780601f10610d2e57610100808354040283529160200191610d59565b820191906000526020600020905b815481529060010190602001808311610d3c57829003601f168201915b50505050508152602001600582018054610d72906158f3565b80601f0160208091040260200160405190810160405280929190818152602001828054610d9e906158f3565b8015610deb5780601f10610dc057610100808354040283529160200191610deb565b820191906000526020600020905b815481529060010190602001808311610dce57829003601f168201915b5050505050815260200160068201548152505081526020016007820160405180604001604052908160008201548152602001600182015481525050815260200160098201604051806080016040529081600082018054610e4a906158f3565b80601f0160208091040260200160405190810160405280929190818152602001828054610e76906158f3565b8015610ec35780601f10610e9857610100808354040283529160200191610ec3565b820191906000526020600020905b815481529060010190602001808311610ea657829003601f168201915b50505050508152602001600182018054610edc906158f3565b80601f0160208091040260200160405190810160405280929190818152602001828054610f08906158f3565b8015610f555780601f10610f2a57610100808354040283529160200191610f55565b820191906000526020600020905b815481529060010190602001808311610f3857829003601f168201915b50505050508152602001600282018054610f6e906158f3565b80601f0160208091040260200160405190810160405280929190818152602001828054610f9a906158f3565b8015610fe75780601f10610fbc57610100808354040283529160200191610fe7565b820191906000526020600020905b815481529060010190602001808311610fca57829003601f168201915b50505050508152602001600382018054611000906158f3565b80601f016020809104026020016040519081016040528092919081815260200182805461102c906158f3565b80156110795780601f1061104e57610100808354040283529160200191611079565b820191906000526020600020905b81548152906001019060200180831161105c57829003601f168201915b5050505050815250508152602001600d82016040518060200160405290816000820180546110a6906158f3565b80601f01602080910402602001604051908101604052809291908181526020018280546110d2906158f3565b801561111f5780601f106110f45761010080835404028352916020019161111f565b820191906000526020600020905b81548152906001019060200180831161110257829003601f168201915b5050505050815250508152602001600e820160405180604001604052908160008201805461114c906158f3565b80601f0160208091040260200160405190810160405280929190818152602001828054611178906158f3565b80156111c55780601f1061119a576101008083540402835291602001916111c5565b820191906000526020600020905b8154815290600101906020018083116111a857829003601f168201915b50505091835250506001919091015460ff1615156020918201529082526010830180546040805182850281018501909152818152938301939260009084015b828210156112b0578382906000526020600020018054611223906158f3565b80601f016020809104026020016040519081016040528092919081815260200182805461124f906158f3565b801561129c5780601f106112715761010080835404028352916020019161129c565b820191906000526020600020905b81548152906001019060200180831161127f57829003601f168201915b505050505081526020019060010190611204565b50505090825250601191909101546020918201526040805160608101825260008082528184018981528284018990528a8252600485529281208054600181810183559183529185902083516003909302019182559251805195965091948594919361132093908501920190614b45565b506040820151805161133c916002840191602090910190614b45565b5050600360c08401525060008681526002602081815260409283902085518051825473ffffffffffffffffffffffffffffffffffffffff19166001600160a01b0390911617825580830151600183015593840151805187959294929385936113aa9390850192910190614b45565b50606082015180516113c6916003840191602090910190614b45565b50608082015180516113e2916004840191602090910190614b45565b5060a082015180516113fe916005840191602090910190614b45565b5060c091909101516006909101556020828101518051600784015581015160088301556040830151805180519192600985019261143e9284920190614b45565b5060208281015180516114579260018501920190614b45565b5060408201518051611473916002840191602090910190614b45565b506060820151805161148f916003840191602090910190614b45565b505050606082015180518051600d8401916114af91839160200190614b45565b505050608082015180518051600e8401916114cf91839160200190614b45565b50602091820151600191909101805460ff191691151591909117905560a083015180516115029260108501920190614bc9565b5060c082015181601101559050507f6b669c1e600d91160d951daa567c63e0c925f8c3ffd9436015ead853d9c18c90866000878760405161154694939291906155b1565b60405180910390a18460405160200161155f9190615463565b6040516020818303038152906040528051906020012060405160200161159390671999585d1d5c995960c21b815260080190565b6040516020818303038152906040528051906020012014156115e8576040518060400160405280600481526020017f667265650000000000000000000000000000000000000000000000000000000081525094505b7f4abbc7bf599cd166bc71fc32ea75896f112507c2ae0406ec7f00dc1226dde7c38686600360405161161c93929190615617565b60405180910390a1505050505050565b6000546001600160a01b031633146116565760405162461bcd60e51b81526004016101b19061554c565b600081815260026020819052604080832081516101c0810190925280546001600160a01b031660e0830190815260018201546101008401529281018054929391928492918491610120850191906116ac906158f3565b80601f01602080910402602001604051908101604052809291908181526020018280546116d8906158f3565b80156117255780601f106116fa57610100808354040283529160200191611725565b820191906000526020600020905b81548152906001019060200180831161170857829003601f168201915b5050505050815260200160038201805461173e906158f3565b80601f016020809104026020016040519081016040528092919081815260200182805461176a906158f3565b80156117b75780601f1061178c576101008083540402835291602001916117b7565b820191906000526020600020905b81548152906001019060200180831161179a57829003601f168201915b505050505081526020016004820180546117d0906158f3565b80601f01602080910402602001604051908101604052809291908181526020018280546117fc906158f3565b80156118495780601f1061181e57610100808354040283529160200191611849565b820191906000526020600020905b81548152906001019060200180831161182c57829003601f168201915b50505050508152602001600582018054611862906158f3565b80601f016020809104026020016040519081016040528092919081815260200182805461188e906158f3565b80156118db5780601f106118b0576101008083540402835291602001916118db565b820191906000526020600020905b8154815290600101906020018083116118be57829003601f168201915b505050505081526020016006820154815250508152602001600782016040518060400160405290816000820154815260200160018201548152505081526020016009820160405180608001604052908160008201805461193a906158f3565b80601f0160208091040260200160405190810160405280929190818152602001828054611966906158f3565b80156119b35780601f10611988576101008083540402835291602001916119b3565b820191906000526020600020905b81548152906001019060200180831161199657829003601f168201915b505050505081526020016001820180546119cc906158f3565b80601f01602080910402602001604051908101604052809291908181526020018280546119f8906158f3565b8015611a455780601f10611a1a57610100808354040283529160200191611a45565b820191906000526020600020905b815481529060010190602001808311611a2857829003601f168201915b50505050508152602001600282018054611a5e906158f3565b80601f0160208091040260200160405190810160405280929190818152602001828054611a8a906158f3565b8015611ad75780601f10611aac57610100808354040283529160200191611ad7565b820191906000526020600020905b815481529060010190602001808311611aba57829003601f168201915b50505050508152602001600382018054611af0906158f3565b80601f0160208091040260200160405190810160405280929190818152602001828054611b1c906158f3565b8015611b695780601f10611b3e57610100808354040283529160200191611b69565b820191906000526020600020905b815481529060010190602001808311611b4c57829003601f168201915b5050505050815250508152602001600d8201604051806020016040529081600082018054611b96906158f3565b80601f0160208091040260200160405190810160405280929190818152602001828054611bc2906158f3565b8015611c0f5780601f10611be457610100808354040283529160200191611c0f565b820191906000526020600020905b815481529060010190602001808311611bf257829003601f168201915b5050505050815250508152602001600e8201604051806040016040529081600082018054611c3c906158f3565b80601f0160208091040260200160405190810160405280929190818152602001828054611c68906158f3565b8015611cb55780601f10611c8a57610100808354040283529160200191611cb5565b820191906000526020600020905b815481529060010190602001808311611c9857829003601f168201915b50505091835250506001919091015460ff1615156020918201529082526010830180546040805182850281018501909152818152938301939260009084015b82821015611da0578382906000526020600020018054611d13906158f3565b80601f0160208091040260200160405190810160405280929190818152602001828054611d3f906158f3565b8015611d8c5780601f10611d6157610100808354040283529160200191611d8c565b820191906000526020600020905b815481529060010190602001808311611d6f57829003601f168201915b505050505081526020019060010190611cf4565b5050509082525060119190910154602091820152600260c08301819052600085815281835260409081902084518051825473ffffffffffffffffffffffffffffffffffffffff19166001600160a01b039091161782558085015160018301559182015180519596508695919492938593611e1f93918501920190614b45565b5060608201518051611e3b916003840191602090910190614b45565b5060808201518051611e57916004840191602090910190614b45565b5060a08201518051611e73916005840191602090910190614b45565b5060c0919091015160069091015560208281015180516007840155810151600883015560408301518051805191926009850192611eb39284920190614b45565b506020828101518051611ecc9260018501920190614b45565b5060408201518051611ee8916002840191602090910190614b45565b5060608201518051611f04916003840191602090910190614b45565b505050606082015180518051600d840191611f2491839160200190614b45565b505050608082015180518051600e840191611f4491839160200190614b45565b50602091820151600191909101805460ff191691151591909117905560a08301518051611f779260108501920190614bc9565b5060c082015181601101559050507f7b1e414b963bc2c8c95c48dbbe3d7f418b7a86499aad85f13d20fa6b9a4bd050826002604051610b229291906155fc565b60008b8152600260205260409020548b906001600160a01b03163314611fef5760405162461bcd60e51b81526004016101b190615586565b60008c815260026020819052604080832081516101c0810190925280546001600160a01b031660e083019081526001820154610100840152928101805492939192849291849161012085019190612045906158f3565b80601f0160208091040260200160405190810160405280929190818152602001828054612071906158f3565b80156120be5780601f10612093576101008083540402835291602001916120be565b820191906000526020600020905b8154815290600101906020018083116120a157829003601f168201915b505050505081526020016003820180546120d7906158f3565b80601f0160208091040260200160405190810160405280929190818152602001828054612103906158f3565b80156121505780601f1061212557610100808354040283529160200191612150565b820191906000526020600020905b81548152906001019060200180831161213357829003601f168201915b50505050508152602001600482018054612169906158f3565b80601f0160208091040260200160405190810160405280929190818152602001828054612195906158f3565b80156121e25780601f106121b7576101008083540402835291602001916121e2565b820191906000526020600020905b8154815290600101906020018083116121c557829003601f168201915b505050505081526020016005820180546121fb906158f3565b80601f0160208091040260200160405190810160405280929190818152602001828054612227906158f3565b80156122745780601f1061224957610100808354040283529160200191612274565b820191906000526020600020905b81548152906001019060200180831161225757829003601f168201915b50505050508152602001600682015481525050815260200160078201604051806040016040529081600082015481526020016001820154815250508152602001600982016040518060800160405290816000820180546122d3906158f3565b80601f01602080910402602001604051908101604052809291908181526020018280546122ff906158f3565b801561234c5780601f106123215761010080835404028352916020019161234c565b820191906000526020600020905b81548152906001019060200180831161232f57829003601f168201915b50505050508152602001600182018054612365906158f3565b80601f0160208091040260200160405190810160405280929190818152602001828054612391906158f3565b80156123de5780601f106123b3576101008083540402835291602001916123de565b820191906000526020600020905b8154815290600101906020018083116123c157829003601f168201915b505050505081526020016002820180546123f7906158f3565b80601f0160208091040260200160405190810160405280929190818152602001828054612423906158f3565b80156124705780601f1061244557610100808354040283529160200191612470565b820191906000526020600020905b81548152906001019060200180831161245357829003601f168201915b50505050508152602001600382018054612489906158f3565b80601f01602080910402602001604051908101604052809291908181526020018280546124b5906158f3565b80156125025780601f106124d757610100808354040283529160200191612502565b820191906000526020600020905b8154815290600101906020018083116124e557829003601f168201915b5050505050815250508152602001600d820160405180602001604052908160008201805461252f906158f3565b80601f016020809104026020016040519081016040528092919081815260200182805461255b906158f3565b80156125a85780601f1061257d576101008083540402835291602001916125a8565b820191906000526020600020905b81548152906001019060200180831161258b57829003601f168201915b5050505050815250508152602001600e82016040518060400160405290816000820180546125d5906158f3565b80601f0160208091040260200160405190810160405280929190818152602001828054612601906158f3565b801561264e5780601f106126235761010080835404028352916020019161264e565b820191906000526020600020905b81548152906001019060200180831161263157829003601f168201915b50505091835250506001919091015460ff1615156020918201529082526010830180546040805182850281018501909152818152938301939260009084015b828210156127395783829060005260206000200180546126ac906158f3565b80601f01602080910402602001604051908101604052809291908181526020018280546126d8906158f3565b80156127255780601f106126fa57610100808354040283529160200191612725565b820191906000526020600020905b81548152906001019060200180831161270857829003601f168201915b50505050508152602001906001019061268d565b505050908252506011919091015460209182015281516040018e905281516060018d905281516080018c9052815160a0018b9052815160c0018a905281810180518a90525101879052855190915085906000906127a657634e487b7160e01b600052603260045260246000fd5b6020026020010151816040015160000181905250846001815181106127db57634e487b7160e01b600052603260045260246000fd5b60200260200101518160400151602001819052508460028151811061281057634e487b7160e01b600052603260045260246000fd5b60200260200101518160400151604001819052508460038151811061284557634e487b7160e01b600052603260045260246000fd5b60200260200101518160400151606001819052508360008151811061287a57634e487b7160e01b600052603260045260246000fd5b60209081029190910181015160608301515260a0820184905260008e8152600280835260409182902084518051825473ffffffffffffffffffffffffffffffffffffffff19166001600160a01b03909116178255808501516001830155928301518051869592949385936128f49391850192910190614b45565b5060608201518051612910916003840191602090910190614b45565b506080820151805161292c916004840191602090910190614b45565b5060a08201518051612948916005840191602090910190614b45565b5060c09190910151600690910155602082810151805160078401558101516008830155604083015180518051919260098501926129889284920190614b45565b5060208281015180516129a19260018501920190614b45565b50604082015180516129bd916002840191602090910190614b45565b50606082015180516129d9916003840191602090910190614b45565b505050606082015180518051600d8401916129f991839160200190614b45565b505050608082015180518051600e840191612a1991839160200190614b45565b50602091820151600191909101805460ff191691151591909117905560a08301518051612a4c9260108501920190614bc9565b5060c082015181601101559050507fe7cc58566b91b342902d59b6b5f0f028ebf0cc2c2278bd92adaaeeb0a65a5ed08d8d8d8d8d8d8d8d8d8d8d604051612a9d9b9a9998979695949392919061570c565b60405180910390a150505050505050505050505050565b6000546001600160a01b03163314612ade5760405162461bcd60e51b81526004016101b19061554c565b612ae86000614ae8565b565b6000546001600160a01b03163314612b145760405162461bcd60e51b81526004016101b19061554c565b600081815260026020819052604080832081516101c0810190925280546001600160a01b031660e083019081526001820154610100840152928101805492939192849291849161012085019190612b6a906158f3565b80601f0160208091040260200160405190810160405280929190818152602001828054612b96906158f3565b8015612be35780601f10612bb857610100808354040283529160200191612be3565b820191906000526020600020905b815481529060010190602001808311612bc657829003601f168201915b50505050508152602001600382018054612bfc906158f3565b80601f0160208091040260200160405190810160405280929190818152602001828054612c28906158f3565b8015612c755780601f10612c4a57610100808354040283529160200191612c75565b820191906000526020600020905b815481529060010190602001808311612c5857829003601f168201915b50505050508152602001600482018054612c8e906158f3565b80601f0160208091040260200160405190810160405280929190818152602001828054612cba906158f3565b8015612d075780601f10612cdc57610100808354040283529160200191612d07565b820191906000526020600020905b815481529060010190602001808311612cea57829003601f168201915b50505050508152602001600582018054612d20906158f3565b80601f0160208091040260200160405190810160405280929190818152602001828054612d4c906158f3565b8015612d995780601f10612d6e57610100808354040283529160200191612d99565b820191906000526020600020905b815481529060010190602001808311612d7c57829003601f168201915b5050505050815260200160068201548152505081526020016007820160405180604001604052908160008201548152602001600182015481525050815260200160098201604051806080016040529081600082018054612df8906158f3565b80601f0160208091040260200160405190810160405280929190818152602001828054612e24906158f3565b8015612e715780601f10612e4657610100808354040283529160200191612e71565b820191906000526020600020905b815481529060010190602001808311612e5457829003601f168201915b50505050508152602001600182018054612e8a906158f3565b80601f0160208091040260200160405190810160405280929190818152602001828054612eb6906158f3565b8015612f035780601f10612ed857610100808354040283529160200191612f03565b820191906000526020600020905b815481529060010190602001808311612ee657829003601f168201915b50505050508152602001600282018054612f1c906158f3565b80601f0160208091040260200160405190810160405280929190818152602001828054612f48906158f3565b8015612f955780601f10612f6a57610100808354040283529160200191612f95565b820191906000526020600020905b815481529060010190602001808311612f7857829003601f168201915b50505050508152602001600382018054612fae906158f3565b80601f0160208091040260200160405190810160405280929190818152602001828054612fda906158f3565b80156130275780601f10612ffc57610100808354040283529160200191613027565b820191906000526020600020905b81548152906001019060200180831161300a57829003601f168201915b5050505050815250508152602001600d8201604051806020016040529081600082018054613054906158f3565b80601f0160208091040260200160405190810160405280929190818152602001828054613080906158f3565b80156130cd5780601f106130a2576101008083540402835291602001916130cd565b820191906000526020600020905b8154815290600101906020018083116130b057829003601f168201915b5050505050815250508152602001600e82016040518060400160405290816000820180546130fa906158f3565b80601f0160208091040260200160405190810160405280929190818152602001828054613126906158f3565b80156131735780601f1061314857610100808354040283529160200191613173565b820191906000526020600020905b81548152906001019060200180831161315657829003601f168201915b50505091835250506001919091015460ff1615156020918201529082526010830180546040805182850281018501909152818152938301939260009084015b8282101561325e5783829060005260206000200180546131d1906158f3565b80601f01602080910402602001604051908101604052809291908181526020018280546131fd906158f3565b801561324a5780601f1061321f5761010080835404028352916020019161324a565b820191906000526020600020905b81548152906001019060200180831161322d57829003601f168201915b5050505050815260200190600101906131b2565b505050908252506011919091015460209182015260808201516000908201819052848152600280835260409182902084518051825473ffffffffffffffffffffffffffffffffffffffff19166001600160a01b039091161782558085015160018301559283015180519596508695919485936132e1939085019290910190614b45565b50606082015180516132fd916003840191602090910190614b45565b5060808201518051613319916004840191602090910190614b45565b5060a08201518051613335916005840191602090910190614b45565b5060c09190910151600690910155602082810151805160078401558101516008830155604083015180518051919260098501926133759284920190614b45565b50602082810151805161338e9260018501920190614b45565b50604082015180516133aa916002840191602090910190614b45565b50606082015180516133c6916003840191602090910190614b45565b505050606082015180518051600d8401916133e691839160200190614b45565b505050608082015180518051600e84019161340691839160200190614b45565b50602091820151600191909101805460ff191691151591909117905560a083015180516134399260108501920190614bc9565b5060c082015181601101559050507f80e30cd778def18d07e5863dd05e76f674a55e2703521087338e44fbce9ab8df826000604051610b22929190615596565b3360009081526003602052604090205460ff16156134a95760405162461bcd60e51b81526004016101b19061553c565b6134b7600180546001019055565b6000604051806060016040528060008152602001836000815181106134ec57634e487b7160e01b600052603260045260246000fd5b602002602001015181526020018360018151811061351a57634e487b7160e01b600052603260045260246000fd5b602002602001015181525090506004600061353460015490565b815260208082019290925260400160009081208054600181810183559183529183902084516003909302019182558383015180518594613578938501920190614b45565b5060408201518051613594916002840191602090910190614b45565b5050507f6b669c1e600d91160d951daa567c63e0c925f8c3ffd9436015ead853d9c18c906135c160015490565b6000846000815181106135e457634e487b7160e01b600052603260045260246000fd5b60200260200101518560018151811061360d57634e487b7160e01b600052603260045260246000fd5b602002602001015160405161362594939291906155b1565b60405180910390a18160008151811061364e57634e487b7160e01b600052603260045260246000fd5b60200260200101516040516020016136669190615463565b6040516020818303038152906040528051906020012060405160200161369a90671999585d1d5c995960c21b815260080190565b604051602081830303815290604052805190602001201415613719576040518060400160405280600481526020017f66726565000000000000000000000000000000000000000000000000000000008152508260008151811061370d57634e487b7160e01b600052603260045260246000fd5b60200260200101819052505b60006040518060e001604052806040518060e00160405280336001600160a01b0316815260200161374960015490565b81526020018c60008151811061376f57634e487b7160e01b600052603260045260246000fd5b602002602001015181526020018c60018151811061379d57634e487b7160e01b600052603260045260246000fd5b602002602001015181526020018c6002815181106137cb57634e487b7160e01b600052603260045260246000fd5b602002602001015181526020018c6003815181106137f957634e487b7160e01b600052603260045260246000fd5b602002602001015181526020018b815250815260200160405180604001604052808a60008151811061383b57634e487b7160e01b600052603260045260246000fd5b602002602001015181526020018a60018151811061386957634e487b7160e01b600052603260045260246000fd5b602002602001015181525081526020016040518060800160405280896000815181106138a557634e487b7160e01b600052603260045260246000fd5b60200260200101518152602001896001815181106138d357634e487b7160e01b600052603260045260246000fd5b602002602001015181526020018960028151811061390157634e487b7160e01b600052603260045260246000fd5b602002602001015181526020018960038151811061392f57634e487b7160e01b600052603260045260246000fd5b6020026020010151815250815260200160405180602001604052808860008151811061396b57634e487b7160e01b600052603260045260246000fd5b602002602001015181525081526020016040518060400160405280866000815181106139a757634e487b7160e01b600052603260045260246000fd5b602002602001015181526020016000151581525081526020018581526020016000815250905080600260006139db60015490565b8152602080820192909252604090810160002083518051825473ffffffffffffffffffffffffffffffffffffffff19166001600160a01b0390911617825580840151600183015591820151805191938492613a3c9260028501920190614b45565b5060608201518051613a58916003840191602090910190614b45565b5060808201518051613a74916004840191602090910190614b45565b5060a08201518051613a90916005840191602090910190614b45565b5060c0919091015160069091015560208281015180516007840155810151600883015560408301518051805191926009850192613ad09284920190614b45565b506020828101518051613ae99260018501920190614b45565b5060408201518051613b05916002840191602090910190614b45565b5060608201518051613b21916003840191602090910190614b45565b505050606082015180518051600d840191613b4191839160200190614b45565b505050608082015180518051600e840191613b6191839160200190614b45565b50602091820151600191909101805460ff191691151591909117905560a08301518051613b949260108501920190614bc9565b5060c09190910151601190910155336000818152600360205260409020805460ff19166001908117909155547fb1fc8eacc9dcdfd1bc91e03a9c1dd8531af7e2338636ab7e82eb091f1559a1a991908b600081518110613c0457634e487b7160e01b600052603260045260246000fd5b60200260200101518c600181518110613c2d57634e487b7160e01b600052603260045260246000fd5b60200260200101518d600281518110613c5657634e487b7160e01b600052603260045260246000fd5b60200260200101518e600381518110613c7f57634e487b7160e01b600052603260045260246000fd5b60200260200101518e8e600081518110613ca957634e487b7160e01b600052603260045260246000fd5b60200260200101518f600181518110613cd257634e487b7160e01b600052603260045260246000fd5b6020026020010151604051613cef9998979695949392919061548a565b60405180910390a17f76652762977fc4c94c5454f4075acf1de6cb1b3b06f6ded0f8dd9cfbce051e44613d2160015490565b87600081518110613d4257634e487b7160e01b600052603260045260246000fd5b602002602001015188600181518110613d6b57634e487b7160e01b600052603260045260246000fd5b602002602001015189600281518110613d9457634e487b7160e01b600052603260045260246000fd5b60200260200101518a600381518110613dbd57634e487b7160e01b600052603260045260246000fd5b60200260200101518a600081518110613de657634e487b7160e01b600052603260045260246000fd5b60200260200101518a8a600081518110613e1057634e487b7160e01b600052603260045260246000fd5b6020026020010151600080604051613e319a99989796959493929190615646565b60405180910390a1505050505050505050565b6000546001600160a01b03163314613e6e5760405162461bcd60e51b81526004016101b19061554c565b6001600160a01b038116613e945760405162461bcd60e51b81526004016101b19061552c565b613e9d81614ae8565b50565b6000546001600160a01b03163314613eca5760405162461bcd60e51b81526004016101b19061554c565b600081815260026020819052604080832081516101c0810190925280546001600160a01b031660e083019081526001820154610100840152928101805492939192849291849161012085019190613f20906158f3565b80601f0160208091040260200160405190810160405280929190818152602001828054613f4c906158f3565b8015613f995780601f10613f6e57610100808354040283529160200191613f99565b820191906000526020600020905b815481529060010190602001808311613f7c57829003601f168201915b50505050508152602001600382018054613fb2906158f3565b80601f0160208091040260200160405190810160405280929190818152602001828054613fde906158f3565b801561402b5780601f106140005761010080835404028352916020019161402b565b820191906000526020600020905b81548152906001019060200180831161400e57829003601f168201915b50505050508152602001600482018054614044906158f3565b80601f0160208091040260200160405190810160405280929190818152602001828054614070906158f3565b80156140bd5780601f10614092576101008083540402835291602001916140bd565b820191906000526020600020905b8154815290600101906020018083116140a057829003601f168201915b505050505081526020016005820180546140d6906158f3565b80601f0160208091040260200160405190810160405280929190818152602001828054614102906158f3565b801561414f5780601f106141245761010080835404028352916020019161414f565b820191906000526020600020905b81548152906001019060200180831161413257829003601f168201915b50505050508152602001600682015481525050815260200160078201604051806040016040529081600082015481526020016001820154815250508152602001600982016040518060800160405290816000820180546141ae906158f3565b80601f01602080910402602001604051908101604052809291908181526020018280546141da906158f3565b80156142275780601f106141fc57610100808354040283529160200191614227565b820191906000526020600020905b81548152906001019060200180831161420a57829003601f168201915b50505050508152602001600182018054614240906158f3565b80601f016020809104026020016040519081016040528092919081815260200182805461426c906158f3565b80156142b95780601f1061428e576101008083540402835291602001916142b9565b820191906000526020600020905b81548152906001019060200180831161429c57829003601f168201915b505050505081526020016002820180546142d2906158f3565b80601f01602080910402602001604051908101604052809291908181526020018280546142fe906158f3565b801561434b5780601f106143205761010080835404028352916020019161434b565b820191906000526020600020905b81548152906001019060200180831161432e57829003601f168201915b50505050508152602001600382018054614364906158f3565b80601f0160208091040260200160405190810160405280929190818152602001828054614390906158f3565b80156143dd5780601f106143b2576101008083540402835291602001916143dd565b820191906000526020600020905b8154815290600101906020018083116143c057829003601f168201915b5050505050815250508152602001600d820160405180602001604052908160008201805461440a906158f3565b80601f0160208091040260200160405190810160405280929190818152602001828054614436906158f3565b80156144835780601f1061445857610100808354040283529160200191614483565b820191906000526020600020905b81548152906001019060200180831161446657829003601f168201915b5050505050815250508152602001600e82016040518060400160405290816000820180546144b0906158f3565b80601f01602080910402602001604051908101604052809291908181526020018280546144dc906158f3565b80156145295780601f106144fe57610100808354040283529160200191614529565b820191906000526020600020905b81548152906001019060200180831161450c57829003601f168201915b50505091835250506001919091015460ff1615156020918201529082526010830180546040805182850281018501909152818152938301939260009084015b82821015614614578382906000526020600020018054614587906158f3565b80601f01602080910402602001604051908101604052809291908181526020018280546145b3906158f3565b80156146005780601f106145d557610100808354040283529160200191614600565b820191906000526020600020905b8154815290600101906020018083116145e357829003601f168201915b505050505081526020019060010190614568565b505050908252506011919091015460209182015260008481526004909152604090208054919250429161464990600190615887565b8154811061466757634e487b7160e01b600052603260045260246000fd5b60009182526020808320600390920290910192909255838152600490915260409020805461469790600190615887565b815481106146b557634e487b7160e01b600052603260045260246000fd5b90600052602060002090600302016001016040516020016146d6919061546d565b6040516020818303038152906040528051906020012060405160200161470a90671999585d1d5c995960c21b815260080190565b6040516020818303038152906040528051906020012014614803576000828152600460205260409020805461474190600190615887565b8154811061475f57634e487b7160e01b600052603260045260246000fd5b9060005260206000209060030201600101805461477b906158f3565b80601f01602080910402602001604051908101604052809291908181526020018280546147a7906158f3565b80156147f45780601f106147c9576101008083540402835291602001916147f4565b820191906000526020600020905b8154815290600101906020018083116147d757829003601f168201915b50505060808401519290925250505b600160c0820181905260008381526002602081815260409283902085518051825473ffffffffffffffffffffffffffffffffffffffff19166001600160a01b039091161782558083015195820195909555928401518051869593859361486f9391850192910190614b45565b506060820151805161488b916003840191602090910190614b45565b50608082015180516148a7916004840191602090910190614b45565b5060a082015180516148c3916005840191602090910190614b45565b5060c09190910151600690910155602082810151805160078401558101516008830155604083015180518051919260098501926149039284920190614b45565b50602082810151805161491c9260018501920190614b45565b5060408201518051614938916002840191602090910190614b45565b5060608201518051614954916003840191602090910190614b45565b505050606082015180518051600d84019161497491839160200190614b45565b505050608082015180518051600e84019161499491839160200190614b45565b50602091820151600191909101805460ff191691151591909117905560a083015180516149c79260108501920190614bc9565b5060c09190910151601190910155600082815260046020526040902080547f6b669c1e600d91160d951daa567c63e0c925f8c3ffd9436015ead853d9c18c90918491429190614a1890600190615887565b81548110614a3657634e487b7160e01b600052603260045260246000fd5b60009182526020808320888452600490915260409092208054600160039093029093018201929091614a6791615887565b81548110614a8557634e487b7160e01b600052603260045260246000fd5b9060005260206000209060030201600201604051614aa694939291906157e0565b60405180910390a16080810151516040517fb266706340564f52de2706b6915ec69860afbb2d3653076179a8a6f973cf54e791610b2291859190600190615617565b600080546001600160a01b0383811673ffffffffffffffffffffffffffffffffffffffff19831681178455604051919092169283917f8be0079c531659141344cd1fd0a4f28419497f9722a3daafe3b4186f6b6457e09190a35050565b828054614b51906158f3565b90600052602060002090601f016020900481019282614b735760008555614bb9565b82601f10614b8c57805160ff1916838001178555614bb9565b82800160010185558215614bb9579182015b82811115614bb9578251825591602001919060010190614b9e565b50614bc5929150614c22565b5090565b828054828255906000526020600020908101928215614c16579160200282015b82811115614c165782518051614c06918491602090910190614b45565b5091602001919060010190614be9565b50614bc5929150614c37565b5b80821115614bc55760008155600101614c23565b80821115614bc5576000614c4b8282614c54565b50600101614c37565b508054614c60906158f3565b6000825580601f10614c70575050565b601f016020900490600052602060002090810190613e9d9190614c22565b6000614ca1614c9c84615838565b615821565b90508083825260208201905082856020860285011115614cc057600080fd5b60005b85811015614d0457813567ffffffffffffffff811115614ce257600080fd5b8501614cee8882614df7565b8452506020928301929190910190600101614cc3565b5050509392505050565b6000614d1c614c9c84615838565b90508083825260208201905082856020860285011115614d3b57600080fd5b60005b85811015614d0457614d508783614e17565b83526020928301929190910190600101614d3e565b6000614d73614c9c8461585c565b905082815260208101848484011115614d8b57600080fd5b614d968482856158b7565b509392505050565b8035614da98161598f565b92915050565b600082601f830112614dbf578081fd5b8135614dcf848260208601614c8e565b949350505050565b600082601f830112614de7578081fd5b8135614dcf848260208601614d0e565b600082601f830112614e07578081fd5b8135614dcf848260208601614d65565b8035614da9816159a3565b600060208284031215614e33578081fd5b614e3f83828401614d9e565b9392505050565b600080600080600080600060e0888a031215614e60578283fd5b8288013567ffffffffffffffff811115614e78578384fd5b614e848a828b01614daf565b9750506020614e958a828b01614e17565b965050604088013567ffffffffffffffff811115614eb1578384fd5b614ebd8a828b01614dd7565b955050606088013567ffffffffffffffff811115614ed9578384fd5b614ee58a828b01614daf565b945050608088013567ffffffffffffffff811115614f01578384fd5b614f0d8a828b01614daf565b93505060a088013567ffffffffffffffff811115614f29578283fd5b614f358a828b01614daf565b92505060c088013567ffffffffffffffff811115614f51578182fd5b614f5d8a828b01614daf565b91505092959891949750929550565b600060208284031215614f7d578081fd5b614e3f83828401614e17565b600080600060608486031215614f9d578283fd5b614fa985848601614e17565b9250602084013567ffffffffffffffff811115614fc4578283fd5b614fd086828701614df7565b925050604084013567ffffffffffffffff811115614fec578182fd5b614ff886828701614df7565b9150509250925092565b60008060008060008060008060008060006101608c8e031215615023578384fd5b61502f8d858e01614e17565b9a5060208c013567ffffffffffffffff81111561504a578485fd5b6150568e828f01614df7565b9a505060408c013567ffffffffffffffff811115615072578485fd5b61507e8e828f01614df7565b99505060608c013567ffffffffffffffff81111561509a578485fd5b6150a68e828f01614df7565b98505060808c013567ffffffffffffffff8111156150c2578485fd5b6150ce8e828f01614df7565b97505060a06150df8e828f01614e17565b96505060c06150f08e828f01614e17565b95505060e06151018e828f01614e17565b9450506101008c013567ffffffffffffffff81111561511e578384fd5b61512a8e828f01614daf565b9350506101208c013567ffffffffffffffff811115615147578283fd5b6151538e828f01614daf565b9250506101408c013567ffffffffffffffff811115615170578182fd5b61517c8e828f01614daf565b9150509295989b509295989b9093969950565b6000614e3f838361521e565b6151a48161589e565b82525050565b60006151b4825190565b808452602084019350836020820285016151ce8560200190565b845b8481101561520157838303885281516151e9848261518f565b935050602082016020989098019791506001016151d0565b50909695505050505050565b8015156151a4565b6151a4816158af565b6000615228825190565b80845260208401935061523f8185602086016158c3565b601f01601f19169290920192915050565b600061525a825190565b6152688185602086016158c3565b9290920192915050565b6000815461527f816158f3565b80855260208501945060018216801561529f57600181146152b1576152df565b60ff19831686526020860193506152df565b60008581526020902060005b838110156152d9578154888201526001909101906020016152bd565b87019450505b50505092915050565b600081546152f5816158f3565b60018216801561530c576001811461531d576152df565b60ff198316865281860193506152df565b60008581526020902060005b8381101561534557815488820152600190910190602001615329565b505050939093019392505050565b60268152602081017f4f776e61626c653a206e6577206f776e657220697320746865207a65726f206181527f6464726573730000000000000000000000000000000000000000000000000000602082015290505b60400190565b602d8152602081017f4f6e6c79206f6e6520636f6c6c656374696f6e2063616e20626520637265617481527f6564207065722077616c6c657400000000000000000000000000000000000000602082015290506153a7565b60388152602081017f4f6e6c7920746865206f776e6572206f662074686520636f6c6c656374696f6e81527f2063616e20706572666f726d207468697320616374696f6e0000000000000000602082015290506153a7565b806151a4565b614da98183615250565b614da981836152e8565b919050565b60208101614da9828461519b565b6101208101615499828c61519b565b6154a6602083018b61545d565b81810360408301526154b8818a61521e565b905081810360608301526154cc818961521e565b905081810360808301526154e0818861521e565b905081810360a08301526154f4818761521e565b905061550360c083018661545d565b61551060e083018561545d565b61551e61010083018461545d565b9a9950505050505050505050565b60208082528101614da981615353565b60208082528101614da9816153ad565b60208082528181019081527f4f776e61626c653a2063616c6c6572206973206e6f7420746865206f776e6572604083015260608201614da9565b60208082528101614da981615405565b604081016155a4828561545d565b614e3f602083018461520d565b608081016155bf828761545d565b6155cc6020830186615215565b81810360408301526155de818561521e565b905081810360608301526155f2818461521e565b9695505050505050565b6040810161560a828561545d565b614e3f6020830184615215565b60608101615625828661545d565b8181036020830152615637818561521e565b9050614dcf6040830184615215565b6101408101615655828d61545d565b8181036020830152615667818c61521e565b9050818103604083015261567b818b61521e565b9050818103606083015261568f818a61521e565b905081810360808301526156a3818961521e565b905081810360a08301526156b7818861521e565b905081810360c08301526156cb81876151aa565b905081810360e08301526156df818661521e565b90506156ef61010083018561520d565b6156fd610120830184615215565b9b9a5050505050505050505050565b610160810161571b828e61545d565b818103602083015261572d818d61521e565b90508181036040830152615741818c61521e565b90508181036060830152615755818b61521e565b90508181036080830152615769818a61521e565b905061577860a083018961545d565b61578560c083018861545d565b61579260e083018761545d565b8181036101008301526157a581866151aa565b90508181036101208301526157ba81856151aa565b90508181036101408301526157cf81846151aa565b9d9c50505050505050505050505050565b608081016157ee828761545d565b6157fb602083018661545d565b818103604083015261580d8185615272565b905081810360608301526155f28184615272565b600061582c60405190565b90506154778282615920565b600067ffffffffffffffff82111561585257615852615979565b5060209081020190565b600067ffffffffffffffff82111561587657615876615979565b601f19601f83011660200192915050565b6000828210156158995761589961594d565b500390565b60006001600160a01b038216614da9565b600081614da9565b82818337506000910152565b60005b838110156158de5781810151838201526020016158c6565b838111156158ed576000848401525b50505050565b60028104600182168061590757607f821691505b6020821081141561591a5761591a615963565b50919050565b601f19601f830116810181811067ffffffffffffffff8211171561594657615946615979565b6040525050565b634e487b7160e01b600052601160045260246000fd5b634e487b7160e01b600052602260045260246000fd5b634e487b7160e01b600052604160045260246000fd5b6159988161589e565b8114613e9d57600080fd5b8061599856fea2646970667358221220977ab413ae9e1a42c53fbcdaef3d59879b0fae46a7346021b84b78295ceb49c264736f6c63430008040033",
  "linkReferences": {},
  "deployedLinkReferences": {}
}