{
  "_format": "hh-sol-artifact-1",
  "contractName": "NFTCollections",
  "sourceName": "contracts/NFTCollections.sol",
  "abi": [
    {
      "anonymous": false,
      "inputs": [
        {
          "indexed": false,
          "internalType": "uint256",
          "name": "id",
          "type": "uint256"
        },
        {
          "indexed": false,
          "internalType": "uint256",
          "name": "status",
          "type": "uint256"
        }
      ],
      "name": "CollectionCancelled",
      "type": "event"
    },
    {
      "anonymous": false,
      "inputs": [
        {
          "indexed": false,
          "internalType": "uint256",
          "name": "id",
          "type": "uint256"
        },
        {
          "indexed": false,
          "internalType": "string",
          "name": "websiteURL",
          "type": "string"
        },
        {
          "indexed": false,
          "internalType": "string",
          "name": "twitter",
          "type": "string"
        },
        {
          "indexed": false,
          "internalType": "string",
          "name": "discord",
          "type": "string"
        },
        {
          "indexed": false,
          "internalType": "string",
          "name": "email",
          "type": "string"
        },
        {
          "indexed": false,
          "internalType": "string",
          "name": "openseaURL",
          "type": "string"
        },
        {
          "indexed": false,
          "internalType": "string[]",
          "name": "tags",
          "type": "string[]"
        },
        {
          "indexed": false,
          "internalType": "string",
          "name": "paymentPlan",
          "type": "string"
        },
        {
          "indexed": false,
          "internalType": "bool",
          "name": "isVariablePaymentPlan",
          "type": "bool"
        },
        {
          "indexed": false,
          "internalType": "uint256",
          "name": "status",
          "type": "uint256"
        }
      ],
      "name": "CollectionContactCreated",
      "type": "event"
    },
    {
      "anonymous": false,
      "inputs": [
        {
          "indexed": false,
          "internalType": "address",
          "name": "owner",
          "type": "address"
        },
        {
          "indexed": false,
          "internalType": "uint256",
          "name": "id",
          "type": "uint256"
        },
        {
          "indexed": false,
          "internalType": "string",
          "name": "name",
          "type": "string"
        },
        {
          "indexed": false,
          "internalType": "string",
          "name": "description",
          "type": "string"
        },
        {
          "indexed": false,
          "internalType": "string",
          "name": "imageURI",
          "type": "string"
        },
        {
          "indexed": false,
          "internalType": "string",
          "name": "blockchain",
          "type": "string"
        },
        {
          "indexed": false,
          "internalType": "uint256",
          "name": "totalSupply",
          "type": "uint256"
        },
        {
          "indexed": false,
          "internalType": "uint256",
          "name": "mintDate",
          "type": "uint256"
        },
        {
          "indexed": false,
          "internalType": "uint256",
          "name": "price",
          "type": "uint256"
        }
      ],
      "name": "CollectionCreated",
      "type": "event"
    },
    {
      "anonymous": false,
      "inputs": [
        {
          "indexed": false,
          "internalType": "uint256",
          "name": "id",
          "type": "uint256"
        },
        {
          "indexed": false,
          "internalType": "string",
          "name": "paymentPlan",
          "type": "string"
        },
        {
          "indexed": false,
          "internalType": "uint256",
          "name": "status",
          "type": "uint256"
        }
      ],
      "name": "CollectionPublished",
      "type": "event"
    },
    {
      "anonymous": false,
      "inputs": [
        {
          "indexed": false,
          "internalType": "uint256",
          "name": "id",
          "type": "uint256"
        },
        {
          "indexed": false,
          "internalType": "string",
          "name": "paymentPlan",
          "type": "string"
        },
        {
          "indexed": false,
          "internalType": "uint256",
          "name": "status",
          "type": "uint256"
        }
      ],
      "name": "CollectionRequestPlanUpgrade",
      "type": "event"
    },
    {
      "anonymous": false,
      "inputs": [
        {
          "indexed": false,
          "internalType": "uint256",
          "name": "id",
          "type": "uint256"
        },
        {
          "indexed": false,
          "internalType": "string",
          "name": "name",
          "type": "string"
        },
        {
          "indexed": false,
          "internalType": "string",
          "name": "description",
          "type": "string"
        },
        {
          "indexed": false,
          "internalType": "string",
          "name": "imageURI",
          "type": "string"
        },
        {
          "indexed": false,
          "internalType": "string",
          "name": "blockchain",
          "type": "string"
        },
        {
          "indexed": false,
          "internalType": "uint256",
          "name": "totalSupply",
          "type": "uint256"
        },
        {
          "indexed": false,
          "internalType": "uint256",
          "name": "mintDate",
          "type": "uint256"
        },
        {
          "indexed": false,
          "internalType": "uint256",
          "name": "price",
          "type": "uint256"
        },
        {
          "indexed": false,
          "internalType": "string[]",
          "name": "contactData",
          "type": "string[]"
        },
        {
          "indexed": false,
          "internalType": "string[]",
          "name": "marketplaceData",
          "type": "string[]"
        },
        {
          "indexed": false,
          "internalType": "string[]",
          "name": "tags",
          "type": "string[]"
        }
      ],
      "name": "CollectionUpdated",
      "type": "event"
    },
    {
      "anonymous": false,
      "inputs": [
        {
          "indexed": false,
          "internalType": "uint256",
          "name": "id",
          "type": "uint256"
        },
        {
          "indexed": false,
          "internalType": "bool",
          "name": "isVariablePaymentPlan",
          "type": "bool"
        }
      ],
      "name": "EndVariablePaymentPlan",
      "type": "event"
    },
    {
      "anonymous": false,
      "inputs": [
        {
          "indexed": true,
          "internalType": "address",
          "name": "previousOwner",
          "type": "address"
        },
        {
          "indexed": true,
          "internalType": "address",
          "name": "newOwner",
          "type": "address"
        }
      ],
      "name": "OwnershipTransferred",
      "type": "event"
    },
    {
      "anonymous": false,
      "inputs": [
        {
          "indexed": false,
          "internalType": "uint256",
          "name": "collectionId",
          "type": "uint256"
        },
        {
          "indexed": false,
          "internalType": "uint256",
          "name": "startDate",
          "type": "uint256"
        },
        {
          "indexed": false,
          "internalType": "string",
          "name": "paymentPlan",
          "type": "string"
        },
        {
          "indexed": false,
          "internalType": "string",
          "name": "paymentTxHash",
          "type": "string"
        }
      ],
      "name": "PaymentPlanHistoryAdded",
      "type": "event"
    },
    {
      "anonymous": false,
      "inputs": [
        {
          "indexed": false,
          "internalType": "uint256",
          "name": "id",
          "type": "uint256"
        },
        {
          "indexed": false,
          "internalType": "bool",
          "name": "isVariablePaymentPlan",
          "type": "bool"
        }
      ],
      "name": "StartVariablePaymentPlan",
      "type": "event"
    },
    {
      "inputs": [
        {
          "internalType": "uint256",
          "name": "_collectionId",
          "type": "uint256"
        }
      ],
      "name": "cancelCollection",
      "outputs": [],
      "stateMutability": "nonpayable",
      "type": "function"
    },
    {
      "inputs": [
        {
          "internalType": "string",
          "name": "_name",
          "type": "string"
        },
        {
          "internalType": "string",
          "name": "_description",
          "type": "string"
        },
        {
          "internalType": "string",
          "name": "_imageURI",
          "type": "string"
        },
        {
          "internalType": "string",
          "name": "_blockchain",
          "type": "string"
        },
        {
          "internalType": "uint256",
          "name": "_totalSupply",
          "type": "uint256"
        },
        {
          "internalType": "uint256",
          "name": "_mintDate",
          "type": "uint256"
        },
        {
          "internalType": "uint256",
          "name": "_price",
          "type": "uint256"
        },
        {
          "internalType": "string[]",
          "name": "_contactData",
          "type": "string[]"
        },
        {
          "internalType": "string[]",
          "name": "_marketplaceData",
          "type": "string[]"
        },
        {
          "internalType": "string[]",
          "name": "_tags",
          "type": "string[]"
        },
        {
          "internalType": "string[]",
          "name": "_paymentInfo",
          "type": "string[]"
        }
      ],
      "name": "createCollection",
      "outputs": [],
      "stateMutability": "nonpayable",
      "type": "function"
    },
    {
      "inputs": [
        {
          "internalType": "uint256",
          "name": "_collectionId",
          "type": "uint256"
        },
        {
          "internalType": "string",
          "name": "_name",
          "type": "string"
        },
        {
          "internalType": "string",
          "name": "_description",
          "type": "string"
        },
        {
          "internalType": "string",
          "name": "_imageURI",
          "type": "string"
        },
        {
          "internalType": "string",
          "name": "_blockchain",
          "type": "string"
        },
        {
          "internalType": "uint256",
          "name": "_totalSupply",
          "type": "uint256"
        },
        {
          "internalType": "uint256",
          "name": "_mintDate",
          "type": "uint256"
        },
        {
          "internalType": "uint256",
          "name": "_price",
          "type": "uint256"
        },
        {
          "internalType": "string[]",
          "name": "_contactData",
          "type": "string[]"
        },
        {
          "internalType": "string[]",
          "name": "_marketplaceData",
          "type": "string[]"
        },
        {
          "internalType": "string[]",
          "name": "_tags",
          "type": "string[]"
        }
      ],
      "name": "editCollection",
      "outputs": [],
      "stateMutability": "nonpayable",
      "type": "function"
    },
    {
      "inputs": [
        {
          "internalType": "uint256",
          "name": "_collectionId",
          "type": "uint256"
        }
      ],
      "name": "endVariablePaymentPlan",
      "outputs": [],
      "stateMutability": "nonpayable",
      "type": "function"
    },
    {
      "inputs": [],
      "name": "owner",
      "outputs": [
        {
          "internalType": "address",
          "name": "",
          "type": "address"
        }
      ],
      "stateMutability": "view",
      "type": "function"
    },
    {
      "inputs": [
        {
          "internalType": "uint256",
          "name": "_collectionId",
          "type": "uint256"
        }
      ],
      "name": "publishCollection",
      "outputs": [],
      "stateMutability": "nonpayable",
      "type": "function"
    },
    {
      "inputs": [],
      "name": "renounceOwnership",
      "outputs": [],
      "stateMutability": "nonpayable",
      "type": "function"
    },
    {
      "inputs": [
        {
          "internalType": "uint256",
          "name": "_collectionId",
          "type": "uint256"
        }
      ],
      "name": "startVariablePaymentPlan",
      "outputs": [],
      "stateMutability": "nonpayable",
      "type": "function"
    },
    {
      "inputs": [
        {
          "internalType": "address",
          "name": "newOwner",
          "type": "address"
        }
      ],
      "name": "transferOwnership",
      "outputs": [],
      "stateMutability": "nonpayable",
      "type": "function"
    },
    {
      "inputs": [
        {
          "internalType": "uint256",
          "name": "_collectionId",
          "type": "uint256"
        },
        {
          "internalType": "string",
          "name": "_paymentPlan",
          "type": "string"
        },
        {
          "internalType": "string",
          "name": "_paymentTxHash",
          "type": "string"
        }
      ],
      "name": "upgradePlan",
      "outputs": [],
      "stateMutability": "nonpayable",
      "type": "function"
    }
  ],
  "bytecode": "0x60806040523480156200001157600080fd5b506200001d3362000023565b62000073565b600080546001600160a01b038381166001600160a01b0319831681178455604051919092169283917f8be0079c531659141344cd1fd0a4f28419497f9722a3daafe3b4186f6b6457e09190a35050565b6154ed80620000836000396000f3fe608060405234801561001057600080fd5b50600436106100be5760003560e01c806373f4be5811610076578063aa6281551161005b578063aa6281551461014e578063f2fde38b14610161578063f8276bd21461017457600080fd5b806373f4be58146101195780638da5cb5b1461012c57600080fd5b806330a40b6c116100a757806330a40b6c146100eb57806349c7f76d146100fe578063715018a61461011157600080fd5b80631454da7e146100c357806324c891e2146100d8575b600080fd5b6100d66100d1366004614b63565b610187565b005b6100d66100e6366004614b80565b610b2e565b6100d66100f9366004614b63565b611592565b6100d661010c366004614bf9565b611f1d565b6100d6612a1a565b6100d6610127366004614b63565b612a50565b6000546001600160a01b03166040516101459190614f85565b60405180910390f35b6100d661015c3660046149bd565b6133df565b6100d661016f366004614999565b613ace565b6100d6610182366004614b63565b613b2a565b6000546001600160a01b031633146101ba5760405162461bcd60e51b81526004016101b190615055565b60405180910390fd5b600081815260026020819052604080832081516101c0810190925280546001600160a01b031660e08301908152600182015461010084015292810180549293919284929184916101208501919061021090615401565b80601f016020809104026020016040519081016040528092919081815260200182805461023c90615401565b80156102895780601f1061025e57610100808354040283529160200191610289565b820191906000526020600020905b81548152906001019060200180831161026c57829003601f168201915b505050505081526020016003820180546102a290615401565b80601f01602080910402602001604051908101604052809291908181526020018280546102ce90615401565b801561031b5780601f106102f05761010080835404028352916020019161031b565b820191906000526020600020905b8154815290600101906020018083116102fe57829003601f168201915b5050505050815260200160048201805461033490615401565b80601f016020809104026020016040519081016040528092919081815260200182805461036090615401565b80156103ad5780601f10610382576101008083540402835291602001916103ad565b820191906000526020600020905b81548152906001019060200180831161039057829003601f168201915b505050505081526020016005820180546103c690615401565b80601f01602080910402602001604051908101604052809291908181526020018280546103f290615401565b801561043f5780601f106104145761010080835404028352916020019161043f565b820191906000526020600020905b81548152906001019060200180831161042257829003601f168201915b505050505081526020016006820154815250508152602001600782016040518060400160405290816000820154815260200160018201548152505081526020016009820160405180608001604052908160008201805461049e90615401565b80601f01602080910402602001604051908101604052809291908181526020018280546104ca90615401565b80156105175780601f106104ec57610100808354040283529160200191610517565b820191906000526020600020905b8154815290600101906020018083116104fa57829003601f168201915b5050505050815260200160018201805461053090615401565b80601f016020809104026020016040519081016040528092919081815260200182805461055c90615401565b80156105a95780601f1061057e576101008083540402835291602001916105a9565b820191906000526020600020905b81548152906001019060200180831161058c57829003601f168201915b505050505081526020016002820180546105c290615401565b80601f01602080910402602001604051908101604052809291908181526020018280546105ee90615401565b801561063b5780601f106106105761010080835404028352916020019161063b565b820191906000526020600020905b81548152906001019060200180831161061e57829003601f168201915b5050505050815260200160038201805461065490615401565b80601f016020809104026020016040519081016040528092919081815260200182805461068090615401565b80156106cd5780601f106106a2576101008083540402835291602001916106cd565b820191906000526020600020905b8154815290600101906020018083116106b057829003601f168201915b5050505050815250508152602001600d82016040518060200160405290816000820180546106fa90615401565b80601f016020809104026020016040519081016040528092919081815260200182805461072690615401565b80156107735780601f1061074857610100808354040283529160200191610773565b820191906000526020600020905b81548152906001019060200180831161075657829003601f168201915b5050505050815250508152602001600e82016040518060400160405290816000820180546107a090615401565b80601f01602080910402602001604051908101604052809291908181526020018280546107cc90615401565b80156108195780601f106107ee57610100808354040283529160200191610819565b820191906000526020600020905b8154815290600101906020018083116107fc57829003601f168201915b50505091835250506001919091015460ff1615156020918201529082526010830180546040805182850281018501909152818152938301939260009084015b8282101561090457838290600052602060002001805461087790615401565b80601f01602080910402602001604051908101604052809291908181526020018280546108a390615401565b80156108f05780601f106108c5576101008083540402835291602001916108f0565b820191906000526020600020905b8154815290600101906020018083116108d357829003601f168201915b505050505081526020019060010190610858565b5050509082525060119190910154602091820152608082015160019082018190526000858152600280845260409182902085518051825473ffffffffffffffffffffffffffffffffffffffff19166001600160a01b03909116178255808601519482019490945591830151805195965086959294859361098a9385019290910190614733565b50606082015180516109a6916003840191602090910190614733565b50608082015180516109c2916004840191602090910190614733565b5060a082015180516109de916005840191602090910190614733565b5060c0919091015160069091015560208281015180516007840155810151600883015560408301518051805191926009850192610a1e9284920190614733565b506020828101518051610a379260018501920190614733565b5060408201518051610a53916002840191602090910190614733565b5060608201518051610a6f916003840191602090910190614733565b505050606082015180518051600d840191610a8f91839160200190614733565b505050608082015180518051600e840191610aaf91839160200190614733565b50602091820151600191909101805460ff191691151591909117905560a08301518051610ae292601085019201906147b7565b5060c082015181601101559050507f9deaabafc29d0d74e11ef886fb6432600800ffda3a35b86a77133abfc3c14ff0826001604051610b2292919061509f565b60405180910390a15050565b60008381526002602052604090205483906001600160a01b03163314610b665760405162461bcd60e51b81526004016101b19061508f565b600084815260026020819052604080832081516101c0810190925280546001600160a01b031660e083019081526001820154610100840152928101805492939192849291849161012085019190610bbc90615401565b80601f0160208091040260200160405190810160405280929190818152602001828054610be890615401565b8015610c355780601f10610c0a57610100808354040283529160200191610c35565b820191906000526020600020905b815481529060010190602001808311610c1857829003601f168201915b50505050508152602001600382018054610c4e90615401565b80601f0160208091040260200160405190810160405280929190818152602001828054610c7a90615401565b8015610cc75780601f10610c9c57610100808354040283529160200191610cc7565b820191906000526020600020905b815481529060010190602001808311610caa57829003601f168201915b50505050508152602001600482018054610ce090615401565b80601f0160208091040260200160405190810160405280929190818152602001828054610d0c90615401565b8015610d595780601f10610d2e57610100808354040283529160200191610d59565b820191906000526020600020905b815481529060010190602001808311610d3c57829003601f168201915b50505050508152602001600582018054610d7290615401565b80601f0160208091040260200160405190810160405280929190818152602001828054610d9e90615401565b8015610deb5780601f10610dc057610100808354040283529160200191610deb565b820191906000526020600020905b815481529060010190602001808311610dce57829003601f168201915b5050505050815260200160068201548152505081526020016007820160405180604001604052908160008201548152602001600182015481525050815260200160098201604051806080016040529081600082018054610e4a90615401565b80601f0160208091040260200160405190810160405280929190818152602001828054610e7690615401565b8015610ec35780601f10610e9857610100808354040283529160200191610ec3565b820191906000526020600020905b815481529060010190602001808311610ea657829003601f168201915b50505050508152602001600182018054610edc90615401565b80601f0160208091040260200160405190810160405280929190818152602001828054610f0890615401565b8015610f555780601f10610f2a57610100808354040283529160200191610f55565b820191906000526020600020905b815481529060010190602001808311610f3857829003601f168201915b50505050508152602001600282018054610f6e90615401565b80601f0160208091040260200160405190810160405280929190818152602001828054610f9a90615401565b8015610fe75780601f10610fbc57610100808354040283529160200191610fe7565b820191906000526020600020905b815481529060010190602001808311610fca57829003601f168201915b5050505050815260200160038201805461100090615401565b80601f016020809104026020016040519081016040528092919081815260200182805461102c90615401565b80156110795780601f1061104e57610100808354040283529160200191611079565b820191906000526020600020905b81548152906001019060200180831161105c57829003601f168201915b5050505050815250508152602001600d82016040518060200160405290816000820180546110a690615401565b80601f01602080910402602001604051908101604052809291908181526020018280546110d290615401565b801561111f5780601f106110f45761010080835404028352916020019161111f565b820191906000526020600020905b81548152906001019060200180831161110257829003601f168201915b5050505050815250508152602001600e820160405180604001604052908160008201805461114c90615401565b80601f016020809104026020016040519081016040528092919081815260200182805461117890615401565b80156111c55780601f1061119a576101008083540402835291602001916111c5565b820191906000526020600020905b8154815290600101906020018083116111a857829003601f168201915b50505091835250506001919091015460ff1615156020918201529082526010830180546040805182850281018501909152818152938301939260009084015b828210156112b057838290600052602060002001805461122390615401565b80601f016020809104026020016040519081016040528092919081815260200182805461124f90615401565b801561129c5780601f106112715761010080835404028352916020019161129c565b820191906000526020600020905b81548152906001019060200180831161127f57829003601f168201915b505050505081526020019060010190611204565b50505090825250601191909101546020918201526040805160608101825260008082528184018981528284018990528a8252600485529281208054600181810183559183529185902083516003909302019182559251805195965091948594919361132093908501920190614733565b506040820151805161133c916002840191602090910190614733565b5050600360c08401525060008681526002602081815260409283902085518051825473ffffffffffffffffffffffffffffffffffffffff19166001600160a01b0390911617825580830151600183015593840151805187959294929385936113aa9390850192910190614733565b50606082015180516113c6916003840191602090910190614733565b50608082015180516113e2916004840191602090910190614733565b5060a082015180516113fe916005840191602090910190614733565b5060c091909101516006909101556020828101518051600784015581015160088301556040830151805180519192600985019261143e9284920190614733565b5060208281015180516114579260018501920190614733565b5060408201518051611473916002840191602090910190614733565b506060820151805161148f916003840191602090910190614733565b505050606082015180518051600d8401916114af91839160200190614733565b505050608082015180518051600e8401916114cf91839160200190614733565b50602091820151600191909101805460ff191691151591909117905560a0830151805161150292601085019201906147b7565b5060c082015181601101559050507f6b669c1e600d91160d951daa567c63e0c925f8c3ffd9436015ead853d9c18c90866000878760405161154694939291906150ba565b60405180910390a17f4abbc7bf599cd166bc71fc32ea75896f112507c2ae0406ec7f00dc1226dde7c38686600360405161158293929190615120565b60405180910390a1505050505050565b6000546001600160a01b031633146115bc5760405162461bcd60e51b81526004016101b190615055565b600081815260026020819052604080832081516101c0810190925280546001600160a01b031660e08301908152600182015461010084015292810180549293919284929184916101208501919061161290615401565b80601f016020809104026020016040519081016040528092919081815260200182805461163e90615401565b801561168b5780601f106116605761010080835404028352916020019161168b565b820191906000526020600020905b81548152906001019060200180831161166e57829003601f168201915b505050505081526020016003820180546116a490615401565b80601f01602080910402602001604051908101604052809291908181526020018280546116d090615401565b801561171d5780601f106116f25761010080835404028352916020019161171d565b820191906000526020600020905b81548152906001019060200180831161170057829003601f168201915b5050505050815260200160048201805461173690615401565b80601f016020809104026020016040519081016040528092919081815260200182805461176290615401565b80156117af5780601f10611784576101008083540402835291602001916117af565b820191906000526020600020905b81548152906001019060200180831161179257829003601f168201915b505050505081526020016005820180546117c890615401565b80601f01602080910402602001604051908101604052809291908181526020018280546117f490615401565b80156118415780601f1061181657610100808354040283529160200191611841565b820191906000526020600020905b81548152906001019060200180831161182457829003601f168201915b50505050508152602001600682015481525050815260200160078201604051806040016040529081600082015481526020016001820154815250508152602001600982016040518060800160405290816000820180546118a090615401565b80601f01602080910402602001604051908101604052809291908181526020018280546118cc90615401565b80156119195780601f106118ee57610100808354040283529160200191611919565b820191906000526020600020905b8154815290600101906020018083116118fc57829003601f168201915b5050505050815260200160018201805461193290615401565b80601f016020809104026020016040519081016040528092919081815260200182805461195e90615401565b80156119ab5780601f10611980576101008083540402835291602001916119ab565b820191906000526020600020905b81548152906001019060200180831161198e57829003601f168201915b505050505081526020016002820180546119c490615401565b80601f01602080910402602001604051908101604052809291908181526020018280546119f090615401565b8015611a3d5780601f10611a1257610100808354040283529160200191611a3d565b820191906000526020600020905b815481529060010190602001808311611a2057829003601f168201915b50505050508152602001600382018054611a5690615401565b80601f0160208091040260200160405190810160405280929190818152602001828054611a8290615401565b8015611acf5780601f10611aa457610100808354040283529160200191611acf565b820191906000526020600020905b815481529060010190602001808311611ab257829003601f168201915b5050505050815250508152602001600d8201604051806020016040529081600082018054611afc90615401565b80601f0160208091040260200160405190810160405280929190818152602001828054611b2890615401565b8015611b755780601f10611b4a57610100808354040283529160200191611b75565b820191906000526020600020905b815481529060010190602001808311611b5857829003601f168201915b5050505050815250508152602001600e8201604051806040016040529081600082018054611ba290615401565b80601f0160208091040260200160405190810160405280929190818152602001828054611bce90615401565b8015611c1b5780601f10611bf057610100808354040283529160200191611c1b565b820191906000526020600020905b815481529060010190602001808311611bfe57829003601f168201915b50505091835250506001919091015460ff1615156020918201529082526010830180546040805182850281018501909152818152938301939260009084015b82821015611d06578382906000526020600020018054611c7990615401565b80601f0160208091040260200160405190810160405280929190818152602001828054611ca590615401565b8015611cf25780601f10611cc757610100808354040283529160200191611cf2565b820191906000526020600020905b815481529060010190602001808311611cd557829003601f168201915b505050505081526020019060010190611c5a565b5050509082525060119190910154602091820152600260c08301819052600085815281835260409081902084518051825473ffffffffffffffffffffffffffffffffffffffff19166001600160a01b039091161782558085015160018301559182015180519596508695919492938593611d8593918501920190614733565b5060608201518051611da1916003840191602090910190614733565b5060808201518051611dbd916004840191602090910190614733565b5060a08201518051611dd9916005840191602090910190614733565b5060c0919091015160069091015560208281015180516007840155810151600883015560408301518051805191926009850192611e199284920190614733565b506020828101518051611e329260018501920190614733565b5060408201518051611e4e916002840191602090910190614733565b5060608201518051611e6a916003840191602090910190614733565b505050606082015180518051600d840191611e8a91839160200190614733565b505050608082015180518051600e840191611eaa91839160200190614733565b50602091820151600191909101805460ff191691151591909117905560a08301518051611edd92601085019201906147b7565b5060c082015181601101559050507f7b1e414b963bc2c8c95c48dbbe3d7f418b7a86499aad85f13d20fa6b9a4bd050826002604051610b22929190615105565b60008b8152600260205260409020548b906001600160a01b03163314611f555760405162461bcd60e51b81526004016101b19061508f565b60008c815260026020819052604080832081516101c0810190925280546001600160a01b031660e083019081526001820154610100840152928101805492939192849291849161012085019190611fab90615401565b80601f0160208091040260200160405190810160405280929190818152602001828054611fd790615401565b80156120245780601f10611ff957610100808354040283529160200191612024565b820191906000526020600020905b81548152906001019060200180831161200757829003601f168201915b5050505050815260200160038201805461203d90615401565b80601f016020809104026020016040519081016040528092919081815260200182805461206990615401565b80156120b65780601f1061208b576101008083540402835291602001916120b6565b820191906000526020600020905b81548152906001019060200180831161209957829003601f168201915b505050505081526020016004820180546120cf90615401565b80601f01602080910402602001604051908101604052809291908181526020018280546120fb90615401565b80156121485780601f1061211d57610100808354040283529160200191612148565b820191906000526020600020905b81548152906001019060200180831161212b57829003601f168201915b5050505050815260200160058201805461216190615401565b80601f016020809104026020016040519081016040528092919081815260200182805461218d90615401565b80156121da5780601f106121af576101008083540402835291602001916121da565b820191906000526020600020905b8154815290600101906020018083116121bd57829003601f168201915b505050505081526020016006820154815250508152602001600782016040518060400160405290816000820154815260200160018201548152505081526020016009820160405180608001604052908160008201805461223990615401565b80601f016020809104026020016040519081016040528092919081815260200182805461226590615401565b80156122b25780601f10612287576101008083540402835291602001916122b2565b820191906000526020600020905b81548152906001019060200180831161229557829003601f168201915b505050505081526020016001820180546122cb90615401565b80601f01602080910402602001604051908101604052809291908181526020018280546122f790615401565b80156123445780601f1061231957610100808354040283529160200191612344565b820191906000526020600020905b81548152906001019060200180831161232757829003601f168201915b5050505050815260200160028201805461235d90615401565b80601f016020809104026020016040519081016040528092919081815260200182805461238990615401565b80156123d65780601f106123ab576101008083540402835291602001916123d6565b820191906000526020600020905b8154815290600101906020018083116123b957829003601f168201915b505050505081526020016003820180546123ef90615401565b80601f016020809104026020016040519081016040528092919081815260200182805461241b90615401565b80156124685780601f1061243d57610100808354040283529160200191612468565b820191906000526020600020905b81548152906001019060200180831161244b57829003601f168201915b5050505050815250508152602001600d820160405180602001604052908160008201805461249590615401565b80601f01602080910402602001604051908101604052809291908181526020018280546124c190615401565b801561250e5780601f106124e35761010080835404028352916020019161250e565b820191906000526020600020905b8154815290600101906020018083116124f157829003601f168201915b5050505050815250508152602001600e820160405180604001604052908160008201805461253b90615401565b80601f016020809104026020016040519081016040528092919081815260200182805461256790615401565b80156125b45780601f10612589576101008083540402835291602001916125b4565b820191906000526020600020905b81548152906001019060200180831161259757829003601f168201915b50505091835250506001919091015460ff1615156020918201529082526010830180546040805182850281018501909152818152938301939260009084015b8282101561269f57838290600052602060002001805461261290615401565b80601f016020809104026020016040519081016040528092919081815260200182805461263e90615401565b801561268b5780601f106126605761010080835404028352916020019161268b565b820191906000526020600020905b81548152906001019060200180831161266e57829003601f168201915b5050505050815260200190600101906125f3565b505050908252506011919091015460209182015281516040018e905281516060018d905281516080018c9052815160a0018b9052815160c0018a905281810180518a905251018790528551909150859060009061270c57634e487b7160e01b600052603260045260246000fd5b60200260200101518160400151600001819052508460018151811061274157634e487b7160e01b600052603260045260246000fd5b60200260200101518160400151602001819052508460028151811061277657634e487b7160e01b600052603260045260246000fd5b6020026020010151816040015160400181905250846003815181106127ab57634e487b7160e01b600052603260045260246000fd5b6020026020010151816040015160600181905250836000815181106127e057634e487b7160e01b600052603260045260246000fd5b60209081029190910181015160608301515260a0820184905260008e8152600280835260409182902084518051825473ffffffffffffffffffffffffffffffffffffffff19166001600160a01b039091161782558085015160018301559283015180518695929493859361285a9391850192910190614733565b5060608201518051612876916003840191602090910190614733565b5060808201518051612892916004840191602090910190614733565b5060a082015180516128ae916005840191602090910190614733565b5060c09190910151600690910155602082810151805160078401558101516008830155604083015180518051919260098501926128ee9284920190614733565b5060208281015180516129079260018501920190614733565b5060408201518051612923916002840191602090910190614733565b506060820151805161293f916003840191602090910190614733565b505050606082015180518051600d84019161295f91839160200190614733565b505050608082015180518051600e84019161297f91839160200190614733565b50602091820151600191909101805460ff191691151591909117905560a083015180516129b292601085019201906147b7565b5060c082015181601101559050507fe7cc58566b91b342902d59b6b5f0f028ebf0cc2c2278bd92adaaeeb0a65a5ed08d8d8d8d8d8d8d8d8d8d8d604051612a039b9a99989796959493929190615215565b60405180910390a150505050505050505050505050565b6000546001600160a01b03163314612a445760405162461bcd60e51b81526004016101b190615055565b612a4e60006146d6565b565b6000546001600160a01b03163314612a7a5760405162461bcd60e51b81526004016101b190615055565b600081815260026020819052604080832081516101c0810190925280546001600160a01b031660e083019081526001820154610100840152928101805492939192849291849161012085019190612ad090615401565b80601f0160208091040260200160405190810160405280929190818152602001828054612afc90615401565b8015612b495780601f10612b1e57610100808354040283529160200191612b49565b820191906000526020600020905b815481529060010190602001808311612b2c57829003601f168201915b50505050508152602001600382018054612b6290615401565b80601f0160208091040260200160405190810160405280929190818152602001828054612b8e90615401565b8015612bdb5780601f10612bb057610100808354040283529160200191612bdb565b820191906000526020600020905b815481529060010190602001808311612bbe57829003601f168201915b50505050508152602001600482018054612bf490615401565b80601f0160208091040260200160405190810160405280929190818152602001828054612c2090615401565b8015612c6d5780601f10612c4257610100808354040283529160200191612c6d565b820191906000526020600020905b815481529060010190602001808311612c5057829003601f168201915b50505050508152602001600582018054612c8690615401565b80601f0160208091040260200160405190810160405280929190818152602001828054612cb290615401565b8015612cff5780601f10612cd457610100808354040283529160200191612cff565b820191906000526020600020905b815481529060010190602001808311612ce257829003601f168201915b5050505050815260200160068201548152505081526020016007820160405180604001604052908160008201548152602001600182015481525050815260200160098201604051806080016040529081600082018054612d5e90615401565b80601f0160208091040260200160405190810160405280929190818152602001828054612d8a90615401565b8015612dd75780601f10612dac57610100808354040283529160200191612dd7565b820191906000526020600020905b815481529060010190602001808311612dba57829003601f168201915b50505050508152602001600182018054612df090615401565b80601f0160208091040260200160405190810160405280929190818152602001828054612e1c90615401565b8015612e695780601f10612e3e57610100808354040283529160200191612e69565b820191906000526020600020905b815481529060010190602001808311612e4c57829003601f168201915b50505050508152602001600282018054612e8290615401565b80601f0160208091040260200160405190810160405280929190818152602001828054612eae90615401565b8015612efb5780601f10612ed057610100808354040283529160200191612efb565b820191906000526020600020905b815481529060010190602001808311612ede57829003601f168201915b50505050508152602001600382018054612f1490615401565b80601f0160208091040260200160405190810160405280929190818152602001828054612f4090615401565b8015612f8d5780601f10612f6257610100808354040283529160200191612f8d565b820191906000526020600020905b815481529060010190602001808311612f7057829003601f168201915b5050505050815250508152602001600d8201604051806020016040529081600082018054612fba90615401565b80601f0160208091040260200160405190810160405280929190818152602001828054612fe690615401565b80156130335780601f1061300857610100808354040283529160200191613033565b820191906000526020600020905b81548152906001019060200180831161301657829003601f168201915b5050505050815250508152602001600e820160405180604001604052908160008201805461306090615401565b80601f016020809104026020016040519081016040528092919081815260200182805461308c90615401565b80156130d95780601f106130ae576101008083540402835291602001916130d9565b820191906000526020600020905b8154815290600101906020018083116130bc57829003601f168201915b50505091835250506001919091015460ff1615156020918201529082526010830180546040805182850281018501909152818152938301939260009084015b828210156131c457838290600052602060002001805461313790615401565b80601f016020809104026020016040519081016040528092919081815260200182805461316390615401565b80156131b05780601f10613185576101008083540402835291602001916131b0565b820191906000526020600020905b81548152906001019060200180831161319357829003601f168201915b505050505081526020019060010190613118565b505050908252506011919091015460209182015260808201516000908201819052848152600280835260409182902084518051825473ffffffffffffffffffffffffffffffffffffffff19166001600160a01b03909116178255808501516001830155928301518051959650869591948593613247939085019290910190614733565b5060608201518051613263916003840191602090910190614733565b506080820151805161327f916004840191602090910190614733565b5060a0820151805161329b916005840191602090910190614733565b5060c09190910151600690910155602082810151805160078401558101516008830155604083015180518051919260098501926132db9284920190614733565b5060208281015180516132f49260018501920190614733565b5060408201518051613310916002840191602090910190614733565b506060820151805161332c916003840191602090910190614733565b505050606082015180518051600d84019161334c91839160200190614733565b505050608082015180518051600e84019161336c91839160200190614733565b50602091820151600191909101805460ff191691151591909117905560a0830151805161339f92601085019201906147b7565b5060c082015181601101559050507f80e30cd778def18d07e5863dd05e76f674a55e2703521087338e44fbce9ab8df826000604051610b2292919061509f565b3360009081526003602052604090205460ff161561340f5760405162461bcd60e51b81526004016101b190615045565b61341d600180546001019055565b60006040518060e001604052806040518060e00160405280336001600160a01b0316815260200161344d60015490565b81526020018f81526020018e81526020018d81526020018c81526020018b815250815260200160405180604001604052808a81526020018981525081526020016040518060800160405280886000815181106134b957634e487b7160e01b600052603260045260246000fd5b60200260200101518152602001886001815181106134e757634e487b7160e01b600052603260045260246000fd5b602002602001015181526020018860028151811061351557634e487b7160e01b600052603260045260246000fd5b602002602001015181526020018860038151811061354357634e487b7160e01b600052603260045260246000fd5b6020026020010151815250815260200160405180602001604052808760008151811061357f57634e487b7160e01b600052603260045260246000fd5b602002602001015181525081526020016040518060400160405280856000815181106135bb57634e487b7160e01b600052603260045260246000fd5b602002602001015181526020016000151581525081526020018481526020016000815250905080600260006135ef60015490565b8152602080820192909252604090810160002083518051825473ffffffffffffffffffffffffffffffffffffffff19166001600160a01b03909116178255808401516001830155918201518051919384926136509260028501920190614733565b506060820151805161366c916003840191602090910190614733565b5060808201518051613688916004840191602090910190614733565b5060a082015180516136a4916005840191602090910190614733565b5060c09190910151600690910155602082810151805160078401558101516008830155604083015180518051919260098501926136e49284920190614733565b5060208281015180516136fd9260018501920190614733565b5060408201518051613719916002840191602090910190614733565b5060608201518051613735916003840191602090910190614733565b505050606082015180518051600d84019161375591839160200190614733565b505050608082015180518051600e84019161377591839160200190614733565b50602091820151600191909101805460ff191691151591909117905560a083015180516137a892601085019201906147b7565b5060c09190910151601190910155336000908152600360209081526040808320805460ff19166001179055805160608101909152828152845190918201908590849061380457634e487b7160e01b600052603260045260246000fd5b602002602001015181526020018460018151811061383257634e487b7160e01b600052603260045260246000fd5b602002602001015181525090506004600061384c60015490565b815260208082019290925260400160009081208054600181810183559183529183902084516003909302019182558383015180518594613890938501920190614733565b50604082015180516138ac916002840191602090910190614733565b5050507f6b669c1e600d91160d951daa567c63e0c925f8c3ffd9436015ead853d9c18c906138d960015490565b6000856000815181106138fc57634e487b7160e01b600052603260045260246000fd5b60200260200101518660018151811061392557634e487b7160e01b600052603260045260246000fd5b602002602001015160405161393d94939291906150ba565b60405180910390a17fb1fc8eacc9dcdfd1bc91e03a9c1dd8531af7e2338636ab7e82eb091f1559a1a93361397060015490565b8f8f8f8f8f8f8f60405161398c99989796959493929190614f93565b60405180910390a17f76652762977fc4c94c5454f4075acf1de6cb1b3b06f6ded0f8dd9cfbce051e446139be60015490565b876000815181106139df57634e487b7160e01b600052603260045260246000fd5b602002602001015188600181518110613a0857634e487b7160e01b600052603260045260246000fd5b602002602001015189600281518110613a3157634e487b7160e01b600052603260045260246000fd5b60200260200101518a600381518110613a5a57634e487b7160e01b600052603260045260246000fd5b60200260200101518a600081518110613a8357634e487b7160e01b600052603260045260246000fd5b60200260200101518a8a600081518110613aad57634e487b7160e01b600052603260045260246000fd5b6020026020010151600080604051612a039a9998979695949392919061514f565b6000546001600160a01b03163314613af85760405162461bcd60e51b81526004016101b190615055565b6001600160a01b038116613b1e5760405162461bcd60e51b81526004016101b190615035565b613b27816146d6565b50565b6000546001600160a01b03163314613b545760405162461bcd60e51b81526004016101b190615055565b600081815260026020819052604080832081516101c0810190925280546001600160a01b031660e083019081526001820154610100840152928101805492939192849291849161012085019190613baa90615401565b80601f0160208091040260200160405190810160405280929190818152602001828054613bd690615401565b8015613c235780601f10613bf857610100808354040283529160200191613c23565b820191906000526020600020905b815481529060010190602001808311613c0657829003601f168201915b50505050508152602001600382018054613c3c90615401565b80601f0160208091040260200160405190810160405280929190818152602001828054613c6890615401565b8015613cb55780601f10613c8a57610100808354040283529160200191613cb5565b820191906000526020600020905b815481529060010190602001808311613c9857829003601f168201915b50505050508152602001600482018054613cce90615401565b80601f0160208091040260200160405190810160405280929190818152602001828054613cfa90615401565b8015613d475780601f10613d1c57610100808354040283529160200191613d47565b820191906000526020600020905b815481529060010190602001808311613d2a57829003601f168201915b50505050508152602001600582018054613d6090615401565b80601f0160208091040260200160405190810160405280929190818152602001828054613d8c90615401565b8015613dd95780601f10613dae57610100808354040283529160200191613dd9565b820191906000526020600020905b815481529060010190602001808311613dbc57829003601f168201915b5050505050815260200160068201548152505081526020016007820160405180604001604052908160008201548152602001600182015481525050815260200160098201604051806080016040529081600082018054613e3890615401565b80601f0160208091040260200160405190810160405280929190818152602001828054613e6490615401565b8015613eb15780601f10613e8657610100808354040283529160200191613eb1565b820191906000526020600020905b815481529060010190602001808311613e9457829003601f168201915b50505050508152602001600182018054613eca90615401565b80601f0160208091040260200160405190810160405280929190818152602001828054613ef690615401565b8015613f435780601f10613f1857610100808354040283529160200191613f43565b820191906000526020600020905b815481529060010190602001808311613f2657829003601f168201915b50505050508152602001600282018054613f5c90615401565b80601f0160208091040260200160405190810160405280929190818152602001828054613f8890615401565b8015613fd55780601f10613faa57610100808354040283529160200191613fd5565b820191906000526020600020905b815481529060010190602001808311613fb857829003601f168201915b50505050508152602001600382018054613fee90615401565b80601f016020809104026020016040519081016040528092919081815260200182805461401a90615401565b80156140675780601f1061403c57610100808354040283529160200191614067565b820191906000526020600020905b81548152906001019060200180831161404a57829003601f168201915b5050505050815250508152602001600d820160405180602001604052908160008201805461409490615401565b80601f01602080910402602001604051908101604052809291908181526020018280546140c090615401565b801561410d5780601f106140e25761010080835404028352916020019161410d565b820191906000526020600020905b8154815290600101906020018083116140f057829003601f168201915b5050505050815250508152602001600e820160405180604001604052908160008201805461413a90615401565b80601f016020809104026020016040519081016040528092919081815260200182805461416690615401565b80156141b35780601f10614188576101008083540402835291602001916141b3565b820191906000526020600020905b81548152906001019060200180831161419657829003601f168201915b50505091835250506001919091015460ff1615156020918201529082526010830180546040805182850281018501909152818152938301939260009084015b8282101561429e57838290600052602060002001805461421190615401565b80601f016020809104026020016040519081016040528092919081815260200182805461423d90615401565b801561428a5780601f1061425f5761010080835404028352916020019161428a565b820191906000526020600020905b81548152906001019060200180831161426d57829003601f168201915b5050505050815260200190600101906141f2565b50505090825250601191909101546020918201526000848152600490915260409020805491925042916142d390600190615395565b815481106142f157634e487b7160e01b600052603260045260246000fd5b9060005260206000209060030201600001819055508060800151602001516143f1576000828152600460205260409020805461432f90600190615395565b8154811061434d57634e487b7160e01b600052603260045260246000fd5b9060005260206000209060030201600101805461436990615401565b80601f016020809104026020016040519081016040528092919081815260200182805461439590615401565b80156143e25780601f106143b7576101008083540402835291602001916143e2565b820191906000526020600020905b8154815290600101906020018083116143c557829003601f168201915b50505060808401519290925250505b600160c0820181905260008381526002602081815260409283902085518051825473ffffffffffffffffffffffffffffffffffffffff19166001600160a01b039091161782558083015195820195909555928401518051869593859361445d9391850192910190614733565b5060608201518051614479916003840191602090910190614733565b5060808201518051614495916004840191602090910190614733565b5060a082015180516144b1916005840191602090910190614733565b5060c09190910151600690910155602082810151805160078401558101516008830155604083015180518051919260098501926144f19284920190614733565b50602082810151805161450a9260018501920190614733565b5060408201518051614526916002840191602090910190614733565b5060608201518051614542916003840191602090910190614733565b505050606082015180518051600d84019161456291839160200190614733565b505050608082015180518051600e84019161458291839160200190614733565b50602091820151600191909101805460ff191691151591909117905560a083015180516145b592601085019201906147b7565b5060c09190910151601190910155600082815260046020526040902080547f6b669c1e600d91160d951daa567c63e0c925f8c3ffd9436015ead853d9c18c9091849142919061460690600190615395565b8154811061462457634e487b7160e01b600052603260045260246000fd5b6000918252602080832088845260049091526040909220805460016003909302909301820192909161465591615395565b8154811061467357634e487b7160e01b600052603260045260246000fd5b906000526020600020906003020160020160405161469494939291906152e9565b60405180910390a16080810151516040517fb266706340564f52de2706b6915ec69860afbb2d3653076179a8a6f973cf54e791610b2291859190600190615120565b600080546001600160a01b0383811673ffffffffffffffffffffffffffffffffffffffff19831681178455604051919092169283917f8be0079c531659141344cd1fd0a4f28419497f9722a3daafe3b4186f6b6457e09190a35050565b82805461473f90615401565b90600052602060002090601f01602090048101928261476157600085556147a7565b82601f1061477a57805160ff19168380011785556147a7565b828001600101855582156147a7579182015b828111156147a757825182559160200191906001019061478c565b506147b3929150614810565b5090565b828054828255906000526020600020908101928215614804579160200282015b8281111561480457825180516147f4918491602090910190614733565b50916020019190600101906147d7565b506147b3929150614825565b5b808211156147b35760008155600101614811565b808211156147b35760006148398282614842565b50600101614825565b50805461484e90615401565b6000825580601f1061485e575050565b601f016020900490600052602060002090810190613b279190614810565b600061488f61488a84615346565b61532a565b905080838252602082019050828560208602850111156148ae57600080fd5b60005b858110156148f257813567ffffffffffffffff8111156148d057600080fd5b85016148dc888261496e565b84525060209283019291909101906001016148b1565b5050509392505050565b600061490a61488a8461536a565b90508281526020810184848401111561492257600080fd5b61492d8482856153c5565b509392505050565b80356149408161549d565b92915050565b600082601f830112614956578081fd5b813561496684826020860161487c565b949350505050565b600082601f83011261497e578081fd5b81356149668482602086016148fc565b8035614940816154b1565b6000602082840312156149aa578081fd5b6149b683828401614935565b9392505050565b60008060008060008060008060008060006101608c8e0312156149de578687fd5b868c013567ffffffffffffffff8111156149f6578788fd5b614a028e828f0161496e565b9b505060208c013567ffffffffffffffff811115614a1e578788fd5b614a2a8e828f0161496e565b9a505060408c013567ffffffffffffffff811115614a46578788fd5b614a528e828f0161496e565b99505060608c013567ffffffffffffffff811115614a6e578788fd5b614a7a8e828f0161496e565b9850506080614a8b8e828f0161498e565b97505060a0614a9c8e828f0161498e565b96505060c0614aad8e828f0161498e565b95505060e08c013567ffffffffffffffff811115614ac9578485fd5b614ad58e828f01614946565b9450506101008c013567ffffffffffffffff811115614af2578384fd5b614afe8e828f01614946565b9350506101208c013567ffffffffffffffff811115614b1b578283fd5b614b278e828f01614946565b9250506101408c013567ffffffffffffffff811115614b44578182fd5b614b508e828f01614946565b9150509295989b509295989b9093969950565b600060208284031215614b74578081fd5b6149b68382840161498e565b600080600060608486031215614b94578283fd5b614ba08584860161498e565b9250602084013567ffffffffffffffff811115614bbb578283fd5b614bc78682870161496e565b925050604084013567ffffffffffffffff811115614be3578182fd5b614bef8682870161496e565b9150509250925092565b60008060008060008060008060008060006101608c8e031215614c1a578081fd5b614c268d828e0161498e565b9a5060208c013567ffffffffffffffff811115614c41578182fd5b614c4d8e828f0161496e565b9a505060408c013567ffffffffffffffff811115614c69578182fd5b614c758e828f0161496e565b99505060608c013567ffffffffffffffff811115614c91578182fd5b614c9d8e828f0161496e565b98505060808c013567ffffffffffffffff811115614cb9578182fd5b614cc58e828f0161496e565b97505060a0614cd68e828f0161498e565b96505060c0614ce78e828f0161498e565b95505060e0614cf88e828f0161498e565b9450506101008c013567ffffffffffffffff811115614d15578182fd5b614d218e828f01614946565b9350506101208c013567ffffffffffffffff811115614b1b578182fd5b60006149b68383614dcd565b614d53816153ac565b82525050565b6000614d63825190565b80845260208401935083602082028501614d7d8560200190565b845b84811015614db05783830388528151614d988482614d3e565b93505060208201602098909801979150600101614d7f565b50909695505050505050565b801515614d53565b614d53816153bd565b6000614dd7825190565b808452602084019350614dee8185602086016153d1565b601f01601f19169290920192915050565b60008154614e0c81615401565b808552602085019450600182168015614e2c5760018114614e3e57614e6c565b60ff1983168652602086019350614e6c565b60008581526020902060005b83811015614e6657815488820152600190910190602001614e4a565b87019450505b50505092915050565b60268152602081017f4f776e61626c653a206e6577206f776e657220697320746865207a65726f206181527f6464726573730000000000000000000000000000000000000000000000000000602082015290505b60400190565b602d8152602081017f4f6e6c79206f6e6520636f6c6c656374696f6e2063616e20626520637265617481527f6564207065722077616c6c65740000000000000000000000000000000000000060208201529050614ec9565b60388152602081017f4f6e6c7920746865206f776e6572206f662074686520636f6c6c656374696f6e81527f2063616e20706572666f726d207468697320616374696f6e000000000000000060208201529050614ec9565b80614d53565b602081016149408284614d4a565b6101208101614fa2828c614d4a565b614faf602083018b614f7f565b8181036040830152614fc1818a614dcd565b90508181036060830152614fd58189614dcd565b90508181036080830152614fe98188614dcd565b905081810360a0830152614ffd8187614dcd565b905061500c60c0830186614f7f565b61501960e0830185614f7f565b615027610100830184614f7f565b9a9950505050505050505050565b6020808252810161494081614e75565b6020808252810161494081614ecf565b60208082528181019081527f4f776e61626c653a2063616c6c6572206973206e6f7420746865206f776e6572604083015260608201614940565b6020808252810161494081614f27565b604081016150ad8285614f7f565b6149b66020830184614dbc565b608081016150c88287614f7f565b6150d56020830186614dc4565b81810360408301526150e78185614dcd565b905081810360608301526150fb8184614dcd565b9695505050505050565b604081016151138285614f7f565b6149b66020830184614dc4565b6060810161512e8286614f7f565b81810360208301526151408185614dcd565b90506149666040830184614dc4565b610140810161515e828d614f7f565b8181036020830152615170818c614dcd565b90508181036040830152615184818b614dcd565b90508181036060830152615198818a614dcd565b905081810360808301526151ac8189614dcd565b905081810360a08301526151c08188614dcd565b905081810360c08301526151d48187614d59565b905081810360e08301526151e88186614dcd565b90506151f8610100830185614dbc565b615206610120830184614dc4565b9b9a5050505050505050505050565b6101608101615224828e614f7f565b8181036020830152615236818d614dcd565b9050818103604083015261524a818c614dcd565b9050818103606083015261525e818b614dcd565b90508181036080830152615272818a614dcd565b905061528160a0830189614f7f565b61528e60c0830188614f7f565b61529b60e0830187614f7f565b8181036101008301526152ae8186614d59565b90508181036101208301526152c38185614d59565b90508181036101408301526152d88184614d59565b9d9c50505050505050505050505050565b608081016152f78287614f7f565b6153046020830186614f7f565b81810360408301526153168185614dff565b905081810360608301526150fb8184614dff565b600061533560405190565b9050615341828261542e565b919050565b600067ffffffffffffffff82111561536057615360615487565b5060209081020190565b600067ffffffffffffffff82111561538457615384615487565b601f19601f83011660200192915050565b6000828210156153a7576153a761545b565b500390565b60006001600160a01b038216614940565b600081614940565b82818337506000910152565b60005b838110156153ec5781810151838201526020016153d4565b838111156153fb576000848401525b50505050565b60028104600182168061541557607f821691505b6020821081141561542857615428615471565b50919050565b601f19601f830116810181811067ffffffffffffffff8211171561545457615454615487565b6040525050565b634e487b7160e01b600052601160045260246000fd5b634e487b7160e01b600052602260045260246000fd5b634e487b7160e01b600052604160045260246000fd5b6154a6816153ac565b8114613b2757600080fd5b806154a656fea2646970667358221220fa8416fca3fbaeb0d12005b2f327e8aa46892053767710860e96cc5127ea604a64736f6c63430008040033",
  "linkReferences": {},
  "deployedLinkReferences": {}
}